:1000000005C2000020C2000038C200001CC200006F
:100010001AC2000018C200000C948F1614C200000F
:1000200012C2000010C200000EC200000CC200008C
:100030000AC2000008C200000C946B1604C2000043
:1000400002C2000000C20000FEC10000FCC10000AE
:10005000FAC10000F8C10000F6C10000F4C10000C0
:10006000F2C10000F0C1000000000000000000002C
:100070000000000000000000000000000000000080
:100080000000000000000000000000007E0F00D40F
:10009000FFFFFFC700000078000000000000000024
:1000A0002A2B2800000000000000000000000000D3
:1000B00000000029000000002C1E342021222434DE
:1000C0002627252E362D3738271E1F2021222324B0
:1000D00025263333362E37381F0405060708090A4C
:1000E0000B0C0D0E0F101112131415161718191AE8
:1000F0001B1C1D2F3130232D350405060708090A66
:100100000B0C0D0E0F101112131415161718191AC7
:100110001B1C1D2F3130354C2B0014001A00080019
:1001200015001700E00004001600070009000A008F
:10013000E1001D001B000600190005002900E30076
:10014000E200000021522C002A00130012000C00D3
:1001500018001C00340033000F000E000D000B00CF
:100160002800380037003600100011004F00520000
:100170005100500022522C0035001E001F002000AC
:100180002100220001003A003B003C003D003E00FF
:100190000100400041004200430044000100010012
:1001A00001000100010001004C002700260025008D
:1001B00024002300310030002F002E002D003F00CE
:1001C00001004E004B006400320045004D004B0022
:1001D0004E004A000100010035021E021F022002EB
:1001E00021022202010001000100010001000100C2
:1001F00001000100010001000100010001000100F7
:1002000001000100010001004C0027022602250226
:1002100024022302310230022F022E022D0201009D
:10022000010001000100010001000100AE00A90071
:10023000AA00AB0001000100007C010001000100E8
:1002400001000100010001000100010001000100A6
:100250000100010001000100010001000100010096
:100260000100010001000100010001000100010086
:100270000100010001000100010001000100010076
:100280000100010001000100010001000100010066
:10029000010001000100010005010902A101850220
:1002A0000901A10005091901290815002501950872
:1002B000750181020501093009311581257F9502FB
:1002C0007508810609381581257F95017508810615
:1002D000050C0A38021581257F950175088106C035
:1002E000C005010980A10185031A01002A8F0016AB
:1002F0000100268F00950175108100C0050C0901D1
:10030000A101850419012AA002150126A002950168
:1003100075108100C00660FF0961A1010962150026
:1003200026FF009520750881020963150026FF004D
:10033000952075089102C005010906A1010507195C
:10034000E029E715002501950875018102950175E1
:100350000881030507190029FF150026FF009506EF
:100360007508810005081901290515002501950565
:1003700075019102950175039103C00C0365007529
:1003800000670065006F00000010036B006F006ED7
:10039000006900660061007200000004030904099E
:1003A000025B00030100A032090400000103010107
:1003B0000009210101000122440007058103080012
:1003C00001090401000203000000092101010001EC
:1003D0002222000705840308000107050403080022
:1003E00001090402000103000000092101010001CC
:1003F000227D00070583030800011201100100009F
:1004000000086E6B474500010102000111241FBE68
:10041000CFEFD8E0DEBFCDBF22E0AAE5B1E001C05A
:100420001D92A438B207E1F711E0A0E0B1E0EAE6DE
:10043000F8E302C005900D92AA35B107D9F70E94E2
:10044000B6160C94EB1BDCCDA82FB92F80E090E002
:1004500041E050EA609530E009C02D9182279795E0
:10046000879510F084279527305EC8F36F5FA8F357
:100470000895EADF8D939D930895CF93CFB7CF93DF
:10048000DF93C3954B9BE9F74B9B10C04B9B0EC072
:100490004B9B0CC04B9B0AC04B9B08C04B9B06C0A0
:1004A000C0915E02C395C0935E028EC06F93C091EF
:1004B0005D02DD27CE59DD4F2F9365E54B9B03C0D1
:1004C0002F916F91E1CF0F931F934F9320E040E165
:1004D0005F9309B10C7003FB27F93F9350E03BE0B9
:1004E00039C01C7040642F77012F5F5F1EC04068C9
:1004F00019B11C702F7752501FC0406409B12F777B
:100500000C70D1F15F5F00C023C0406219B12F773A
:100510001C7091F15F5F00C025C00C701027515016
:1005200012F45D5F0000115027952C3F19B1C8F6F9
:100530001C700127015027952C3FC8F6422749938C
:1005400009B10C7010274F73115027952C3FA8F656
:100550004695469519B11C7079F0012701502795F1
:100560002C3F98F66B5A60F3315009B1B0F600C0D9
:1005700012E01CBB00271CC03B503195C31BD04070
:1005800012E01CBB0881033C21F10B3411F12091D6
:100590005B021981110F1213EDCF4A81441F0936F6
:1005A00079F10D3211F0013E29F74F7009F0042F57
:1005B000009361023F915F914F911F910F912F9195
:1005C0006F91CCB3C1FD5DCFDF91CF91CFBFCF9104
:1005D000189520916102222369F310915F02112383
:1005E00009F049C034300AF448C030935F022093C8
:1005F0005C0210915D023BE0311B30935D023DC017
:1006000000915F020130BCF50AE54F7049F430916A
:10061000110134FD33C000931101C8E3D2E032C0B0
:10062000433059F0443091F03091430234FD26C0FC
:1006300000934302C4E4D2E025C03091780234FD37
:100640001DC000937802C9E7D2E01CC030914F0270
:1006500034FD14C000934F02C0E5D2E013C005275B
:1006600010E000C000000BB91AC0052710E0221FDF
:100670001DC010E021C04AE502C032ED432FC4E1A5
:10068000D0E032E01AB11C605B9A0BB11AB95CE0A1
:1006900020E865E320FF05270BB9279517951C3F38
:1006A000F0F66695B8F7B1F720FF05270BB9279547
:1006B00017951C3FD0F62795179517FF05270000C3
:1006C0001C3F0BB9B0F629913A9519F7037F1091A9
:1006D0006002110FC651D0400BB911F010935B02AC
:1006E00012E01CBB08601AB1137F402F437F54E017
:1006F0005A95F1F70BB91AB94BB95CCF482F209135
:1007000034029091FB0157E0291302C080E0089564
:1007100030E0529FF001539FF00D1124E450FE4F42
:100720008181681306C08081481303C085818111CF
:10073000EECF2F5F3F4F2770E7CFFC0183818330DF
:1007400089F130F48130F1F0823021F180E00895B8
:10075000813209F446C08232C9F7248135812130C3
:10076000310509F45EC02115310509F452C022306B
:10077000310561F788E992E09093FA018093F901DD
:100780008DE708958AEF93E09093FA018093F90141
:1007900082E108958FE993E09093FA018093F90143
:1007A0008BE5089582818130A1F0882351F0823059
:1007B00069F68BE793E09093FA018093F9018CE05E
:1007C00008958BE993E09093FA018093F90184E016
:1007D000089589E893E09093FA018093F90180E10C
:1007E0000895848195818130910581F0009731F0E1
:1007F000029709F0ABCF8AEE93E002C081EB93E061
:100800009093FA018093F90189E008958AEC93E0CE
:10081000F7CF87E393E09093FA018093F90184E4A2
:10082000089525E133E03093FA012093F90108950A
:10083000089588E198E00FB6F894A8958093600039
:100840000FBE90936000A895F894D8E0CEEF28E30F
:10085000299320E0299314BEFFCF2FB7F8948091FD
:10086000C2019091C301A091C401B091C5012FBFF5
:100870000895CF93DF9380915E02882371F01092E8
:100880005E02EBDF9093C8018093C7011092C6010E
:100890008091C601DF91CF9108958091C6018111A9
:1008A000F7CFC091C701D091C801D7DF8C1B9D0B3A
:1008B000069770F381E08093C601EACF80910D0125
:1008C00008959C01FC0132969FEF80E0419146170C
:1008D00051F09F3F19F4411101C0982F8F5F86306E
:1008E000A9F79F3F09F40895290F311D97FD3A9507
:1008F000F90162830895A3E0B0E0E1E8F4E00C942C
:10090000591B2091BF013091C00128173907B1F060
:100910009093C0018093BF01E091BD01F091BE01B1
:10092000309761F00084F185E02D309739F024E0B4
:1009300029839B838A83CE01019609952396E2E061
:100940000C94751BA3E0B0E0E8EAF4E00C94591BAA
:100950002091BB013091BC0128173907B1F0909369
:10096000BC018093BB01E091BD01F091BE013097C5
:1009700061F00084F185E02D309739F023E0298380
:100980009B838A83CE01019609952396E2E00C941D
:10099000751BE091BD01F091BE01309739F00190D7
:1009A000F081E02D309711F00995089580E00895C9
:1009B00054DF9C019091B7018091B801982B21F0F0
:1009C0003093B4012093B3019091B9018091BA01A1
:1009D000982B21F03093B2012093B101E091BD0139
:1009E000F091BE01309759F00680F781E02D3097E5
:1009F00031F082E08093B50185EB91E0099508958F
:100A00008091B00180FD16C081FD16C082FD16C028
:100A10008091AF018823A1F0883280F428E0829F82
:100A2000C001112468E270E00E94291B862F672B09
:100A300039F0089582E0089584E0089588E00895EB
:100A400081E008958091B00180FD14C081FD14C043
:100A500082FD16C08091AE01882381F08E3180F432
:100A600020E5829FC00111246EE170E00E94291BE5
:100A7000862F089584E1089588E2089588E0089516
:100A800080E50895282F35EB2303C001112497FF3B
:100A900004C080589109892F089580589F4FFBCF3B
:100AA00080E00895F894E82FE295EF70F0E031A12E
:100AB000282F2F7081E090E001C0880F2A95EAF777
:100AC000982F9095932391A392A1892B82A3789438
:100AD00008959091920192FF10C041E0282F247157
:100AE000243009F040E031E0282F2871283009F047
:100AF00030E0431711F02CE0822793FF10C041E053
:100B0000282F2471243109F040E031E0282F28718A
:100B1000283109F030E0431711F02CE082273091A2
:100B2000930130FF10C051E0282F2171213009F0CE
:100B300050E041E0282F2871283009F040E0541798
:100B400011F029E0822731FF10C041E0282F2171E8
:100B5000213109F040E031E0282F2871283109F0D7
:100B600030E0431711F029E0822794FF02C083FD93
:100B7000877E089582389105B9F1B0F481339105EB
:100B800009F47DC048F48932910509F46DC08A32B8
:100B9000910509F47BC008958533910509F45FC080
:100BA0008933910509F10895833E9105D9F138F40F
:100BB000803E910529F1823E910579F10895863EA6
:100BC0009105D9F1873E910509F43EC0843E910517
:100BD00041F52091930121FF24C08091920184FD71
:100BE00019C087EE90E0089520919201237009F0DA
:100BF0005AC02091930123FF14C089E290E0089528
:100C00002091920120FD38C03091930130FF09C03E
:100C100024FF43C090E080E008952091920122FDDE
:100C2000F7CF08952091920122FD3AC030919301AF
:100C300030FD39C024FFF5CFEDCF2091920123FF85
:100C4000F0CF24FDE7CFCDCF2091920123FD2EC020
:100C50003091930131FFEECF84EE90E00895209122
:100C6000920125FFDECFC9CF2091920125FD21C041
:100C70002091930123FFD5CF89E390E0D2CF20913B
:100C8000920126FFCECF8AE290E008952091920152
:100C900026FFC7CF81E390E0089583EE90E00895AA
:100CA00082EE90E0089580EE90E0089586EE90E068
:100CB000089585E390E008951F93CF93DF935ADF63
:100CC000EC01C11580E5D807F0F5C11580E4D8071F
:100CD00008F09AC0C03ED10520F5CD3CD10508F002
:100CE00082C0C83AD10578F4C53AD10508F073C07E
:100CF000C130D10519F1209709F1C430D105F0F4C4
:100D0000D0E0C0E01BC0C33CD105D0F7C85AD0E04A
:100D1000CC0FDD1FCB5EDE4F0990D881C02DD4648F
:100D20000DC0C11580E2D80708F0CDC0C11581E023
:100D3000D80708F05AC0C83ED10510F7CE01DF91A0
:100D4000CF911F910895C03682E5D80718F5C034B9
:100D500082E5D80708F068C0C03282E5D80708F0FD
:100D60005CC0C11582E5D80708F493C02C2F2695E6
:100D7000269580E2289F900111248C2F8370C1E07A
:100D8000D0E002C0CC0FDD1F8A95E2F7C22BD32B37
:100D9000DD68D4CFC03A82E5D80760F4C03882E578
:100DA000D80708F456C0CF71D0E0DC2FCC27C46F31
:100DB000D06AC4CFC03C82E5D80708F45FC0C03E0B
:100DC00082E5D80708F09CCFDC2FCC27CC27DF7139
:100DD000C06FD06AB3CFC55AD0E0CE5EDE4FC881B7
:100DE000D0E0D064ABCFD065A9CF8D2F72DE182FA5
:100DF000CE019927BFDEC12FD0E0DC2FCC27CC2736
:100E0000DF71C82BD92B9ACFCE019927B3DECC271F
:100E1000DF70C82BD92BD06A91CFCF71D0E0DC2FF7
:100E2000CC27C16FD06A8ACF2C2F269526952770A4
:100E300080E2289F900111248C2F8370C1E0D0E0C4
:100E400002C0CC0FDD1F8A95E2F7C22BD32BDC68E2
:100E500075CF2C2F26952695277080E2289F90012C
:100E600011248C2F8370C1E0D0E002C0CC0FDD1FB5
:100E70008A95E2F7C22BD32BDA6860CF8C2F8F7163
:100E800028DEC82FD0E0DC2FCC27CC27DF71D06242
:100E900055CF8C2F8F711DDE55E0D695C7955A958D
:100EA000E1F7CF70D0E0DC2FCC27282F30E084FF93
:100EB00006C044E0220F331F4A95E1F73327C22BC7
:100EC000D32BD0693BCF8D2F8F7103DE182FCE012E
:100ED000992750DEC12FD0E0DC2FCC27CC27DF7143
:100EE000C82BD92BD4CF80959091820198239093D1
:100EF000820108952091820180918101282B8091A7
:100F00008001882381F0282B30E08EE591E0FC0100
:100F10004191CF0141113F5FF1E084369F07B9F75E
:100F200031111092800120935C01E091BD01F0919C
:100F3000BE01309741F00280F381E02D309719F027
:100F40008CE591E009950895809134029091FB0120
:100F5000981301C008958F5F8770FACF292F9830BA
:100F600078F5863068F590E036E0239F800D911D7E
:100F70001124682F677023E0969587952A95E1F7ED
:100F8000FC01EE0FFF1FE80FF91FEA59FE4F50E07A
:100F900040E080E0219130E0062E02C03695279592
:100FA0000A94E2F721703327042E01C0220F0A941D
:100FB000EAF7822B4F5F5F4F4330510559F7089591
:100FC00080E00895292F983098F5863088F590E0D4
:100FD00036E0239F800D911D1124282F277041E0BA
:100FE00001C0440F2A95EAF723E0969587952A9544
:100FF000E1F7FC01EE0FFF1FE80FF91FEA59FE4F62
:1010000030E020E070E05191DF011197CB01022E1A
:1010100002C0969587950A94E2F78170819585279D
:10102000842385278C932F5F3F4F2330310559F759
:101030000895809390010895882311F054DF5ACFCA
:101040000895882331F090918201982B909382012A
:1010500051CF0895662309F453C08D3C29F4F2DC86
:1010600081958093B801A4CC8E3C11F4EBDCF9CFD0
:101070008F3C29F4E7DC81958093B701F4CF803D64
:1010800011F4E0DCF9CF893D21F4BADC8093B90199
:10109000EACF8A3D19F4B4DC8195F8CF8B3D29F471
:1010A000AFDC81958093BA01DECF8C3D11F4A8DCD2
:1010B000F9CF9FE2980F983070F4815D990B21E091
:1010C00030E001C0220F8A95EAF78091B601822BA9
:1010D0008093B601C8CF8D3D31F48091B00181601D
:1010E0008093B001C0CF8E3D21F48091B001826029
:1010F000F7CF8F3D09F0B7CF8091B0018460F0CF7A
:101100004091B7018D3C59F48091B80187FF0DC023
:101110001092B80141110BC01092AE0108C08E3C74
:1011200081F48091B80118169CF3442381F08091DA
:10113000B9019091BA01892B09F095CF1092AF01B6
:1011400092CF8F3C49F447FFF0CF1092B7018091C6
:10115000B8018111ECCFE0CF803D19F41416ACF347
:10116000E4CF9091B901893D29F41916F4F6109253
:10117000B901DBCF8A3D19F497FFD7CFF8CF909113
:10118000BA018B3D29F497FFD0CF1092BA01CDCF91
:101190008C3D19F41916CCF3C8CF9FE2980F983004
:1011A00090F4815D990B21E030E0B90102C0660F37
:1011B000771F8A95E2F7CB0180959091B60189233C
:1011C0008093B601B2CF8D3D31F48091B0018E7F16
:1011D0008093B001AACF8E3D21F48091B0018D7F24
:1011E000F7CF8F3D09F0A1CF8091B0018B7FF0CF79
:1011F000882391F19CEF980F913A68F4EEE5F1E0C5
:101200009191891303C0DF0111971C9291E0E4369C
:10121000F907B1F76FCE90E2980F983048F48770D5
:1012200091E001C0990F8A95EAF7892F5CDEF2CF31
:101230009BE5980F933018F490E080E083CB98E51D
:10124000980F9B3118F490E080E055CB93E3980F12
:10125000933110F460E0FECE0895CF93C82F882319
:10126000A1F08CEF8C0F813AE8F4EEE5F1E084E632
:1012700091E0DF012D91C21751F08A179B07D1F73A
:101280006C2F8CE591E01DDB35DECF910895219127
:10129000C21303C0DF0111971C928E179F07B9F785
:1012A00029DEEECF80E28C0F883068F4C77021E031
:1012B00030E001C0220FCA95EAF780918201822BAB
:1012C00080938201E1CFEBE5EC0FE33038F4F0E0FE
:1012D000EE5EFE4F808190E035DBD7CFE8E5EC0F86
:1012E000EB3148F4F0E0EE0FFF1FEB5EFE4F808124
:1012F000918101DBCACF83E38C0F833130F661E04B
:101300008C2FA8DEC2CF81FF03C0449A81E00895EC
:101310004498FCCF982F92959F7011F0892F94E0FC
:10132000282F2695269511F09E5F822F869509F02D
:101330009F5F892F0895CF93982F9670C82F96306E
:1013400049F4C8608C2FE6DF882331F0439A8C2F54
:10135000CF910895C77FF6CF4398F9CFECDF809304
:10136000910108959091910121E030E0F90101C0CF
:10137000EE0F8A95EAF7D90102C0AA0FBB1F6A9542
:10138000E2F7EA2B01C0220F4A95EAF7892F8E2354
:10139000E81303C0292B822FE1CF20952923FBCF0F
:1013A00021E030E001C0220F8A95EAF72095809174
:1013B00091018223D3CF90917F01809589238093DF
:1013C0007F01282F277061F4891751F090919301C4
:1013D00092FF06C0869586958695E2DF10927F0182
:1013E000089521E030E001C0220F8A95EAF780914C
:1013F0009101822BB3CFCF93DF9380915F02835013
:1014000087FD14C090915D02CCE0D0E0C91BD109EA
:10141000CE59DD4F90915C02903108F06BC088305E
:1014200009F453C01092E90110925F0280911101FA
:1014300084FF3EC0809110018F3FD1F1C82F8930C9
:1014400008F0C8E0982F9C1B9093100190913802EF
:1014500028E89227909338028823E9F08091F901D7
:101460009091FA012091F80126FF27C1FC012C2F51
:10147000A9E3B2E034913D9331962150D9F79C0114
:101480002F5F3F4F8FEF8C0F820F932F911D909303
:10149000FA018093F9016C2F89E392E00E943902EE
:1014A000CC5FCC3019F08FEF80931001C093110105
:1014B00084E199B19C7031F48150D9F710926002A7
:1014C00010925B02DF91CF9108958091E9018931FB
:1014D00008F0A8CFE82FF0E0E753FE4F9E01285F09
:1014E0003F4F999191932C173D07D9F7885F8093CF
:1014F000E9019ACF9D3209F0C4C0883009F094CF39
:1015000083EC809338028AE5809311011092F801F0
:101510008881807609F468C0803249F489818330FB
:1015200009F44AC030F4813041F18230C9F180E0E1
:101530002FC08A3009F447C08B3009F448C0893085
:10154000B1F78A819B818115924069F48C819D81DC
:10155000892B49F481E08093F7018E819F819093DC
:10156000F6018093F501888187FF89C08E8190E81C
:101570009093F8018093100157CF8C819D81892B26
:10158000B1F68CEE91E09093FA018093F90188E036
:101590009F819111EFCF9E81981760F7892FEACF35
:1015A00080910C018093EB018BEE91E09093FA0116
:1015B0008093F90181E0ECCF80910E018093EA01E4
:1015C0008AEE91E0F3CF8B8180930C01B0CF8C81B8
:1015D0009D81892B09F0ABCF81E09A81911101C0E7
:1015E00080E080930E01A3CF2A811092410299815D
:1015F00091110AC01092420221E432E082E030935D
:10160000FA012093F901C4CF953029F420936002A8
:1016100021E432E0F4CF9630C1F49B81913049F45B
:10162000CE018BD890E49093F8018F3F09F49BCFC3
:10163000AFCF9230A9F3933099F3913289F392327C
:1016400079F390E49093F801A3CF983089F0993022
:1016500019F42093F401DCCF9A3071F09B30C1F67D
:101660009BE4909344029093790290935002D0CFE0
:1016700024EF31E081E0C3CF21E432E0FBCF8FEFF4
:1016800076CF8091F80187FFCFCE8091F5019091C0
:10169000F601892B71F08091F701813051F4888136
:1016A00080930D011092F6011092F5011092100135
:1016B000BBCE8EE180931101B7CEDC012C2FE9E384
:1016C000F2E03D9131932150E1F7D9CE1F93CF93B2
:1016D000DF93E82F792F162FEA01888184FF1CC041
:1016E000298188E828272983CE010296DC012E2F44
:1016F000372F512F5E0FF90121912D939F01452F17
:101700004E1B1416C4F3612F0E9439021C5F18830C
:10171000DF91CF911F9108958AE58883E5CFFF92ED
:101720000F931F93CF93DF93D82F8B01F42EC5E037
:10173000D33091F0D430B9F0D13049F480914302E4
:1017400084FF18C043E452E06F2DC801BFDFCDB75E
:10175000DEB7E5E00C94721B8091780284FF0AC02A
:1017600048E752E0F1CF80914F0284FF03C04FE47D
:1017700052E0EACF40DE8FE19EE40197F1F700C02E
:101780000000C150A9F6E3CFB0E0A0E0EAECFBE036
:101790000C94531BE82E8B01EA016A0183E0D69476
:1017A000C7948A95E1F7F12CFC141D0460F0C77012
:1017B00029F04C2F50E0B8018E2DB1DFCDB7DEB748
:1017C000E8E00C946F1B48E050E0B8018E2DA7DFD5
:1017D000085F1F4FF394E8CF43E050E0BC0183E083
:1017E000D3CF46E050E0BC0183E0CECFCF93DF9370
:1017F000EC0148E050E0BC0181E0C6DF88E0FE017A
:10180000ACEEB1E001900D928A95E1F7DF91CF91B6
:101810000895603229F440E250E0BC0184E0B4CF86
:1018200008951F93CF93DF93122F8430E0F4683034
:10183000D0F44630C0F4C42FD0E0CC0FDD1F9CE0C4
:10184000699FC00DD11D112490E6899FC00DD11D47
:101850001124632FCE0189960E94BD1B612FCE01FA
:101860008A960E94BD1BDF91CF911F910895AF9280
:10187000BF92CF92DF92EF92FF921F93CF93DF93AD
:1018800088E1C82E81E0D82ED0E07601C0E013C0F8
:10189000F50125913491412F6C2F8D2FC2DF82E00D
:1018A000A80EB11C1F5F163099F78CE0E80EF11CF2
:1018B000CF5FC83019F0570110E0EACFDF5F80E654
:1018C000C80ED11CD43009F7DF91CF911F91FF9042
:1018D000EF90DF90CF90BF90AF900895CF93DF93BC
:1018E00085E290E00E94A11BD82F86E290E00E9442
:1018F000A11BC82F87E290E00E94A11BD63259F4A9
:10190000C03149F491E0863009F090E0892F817070
:10191000DF91CF91089580E0FACF9B0127553E4F8C
:10192000673572408105910518F4C9010C94A11B1B
:1019300080E00895CF92DF92EF92FF92CF93DF93F2
:10194000EC01C880D980EA80FB80C701B601E5DFE1
:101950009FEFC91AD90AE90AF90AC882D982EA822C
:10196000FB82DF91CF91FF90EF90DF90CF900895B1
:101970000F931F93CF93DF93843030F5683020F5B9
:10198000463010F5C42FD0E0CC0FDD1F2CE0629F55
:10199000C00DD11D112430E6839FC00DD11D11242F
:1019A000CE0189960E94A11B082F10E0102F00275E
:1019B000CE018A960E94A11B9801282BC901DF91B4
:1019C000CF911F910F91089590E080E0F8CF462FBE
:1019D000783030F4663020F4843010F4672FC8CFAC
:1019E00090E080E00895CF92DF92FF920F931F93D3
:1019F000CF93DF936C010091910180919001082BAE
:101A0000C3E0D0E010E0FC2EC8010C2E02C095957A
:101A100087950A94E2F780FD0CC02197A0F7F12C7E
:101A20008F2DDF91CF911F910F91FF90DF90CF907D
:101A30000895B6018C2FCBDF3FD9019771F3F0CF1A
:101A4000CF93DF93EC01CFDFBE01C1DF35D9DF914A
:101A5000CF910895FC0124812223B9F080819181E6
:101A6000EFDF92959F70963091F058F4925F9F70DF
:101A7000923058F4803F19F030F4883E30F481E021
:101A800008959A5FF4CF843FD1F380E00895883EB3
:101A9000B0F3813FD1F7F3CFA6E0B0E0E2E5FDE09F
:101AA0000C94581B26E0FC01DE01119601900D926A
:101AB0002A95E1F7FC01258189819A81222381F011
:101AC000662371F090DF182F682F89819A817ADA66
:101AD00069817A81812F7BDF2696E3E00C94741B69
:101AE0003DDA182FF5CFA0E1B0E0E9E7FDE00C9476
:101AF0004B1BCE0101965C0180E1F50111928A95A4
:101B0000E9F706E210E099EA892E9924939427E5F3
:101B1000422E22E0522E612C712C6201F1E14F160F
:101B20005104610471042CF080E1C82ED12CE12C09
:101B3000F12CA601B401C5010E94AE1B8C0C9D1CAA
:101B40000D2C000CEE08FF084C185D086E087F088D
:101B50000150110911F76096E0E10C94671B6FEFDB
:101B600085E290E00E94BD1B6FEF86E290E00E944C
:101B7000BD1B6FEF87E290E00E94BD1B60E088E232
:101B800090E00E94BD1B73DEAEDF66E285E290E06E
:101B90000E94BD1B60E186E290E00E94BD1B66E0F2
:101BA00087E290E00C94BD1B9091930192FB222759
:101BB00020F9281771F080FB92F9909393016091BE
:101BC00092017091930184E090E00E94D71B82E023
:101BD000F2CB0895CF9310928201C6E0EEE5F1E0DA
:101BE000DF018C2F1D928A95E9F790E080E00E943A
:101BF000A20490E080E00E947B04109281017AD9D7
:101C0000E5EBF1E0DF011D92CA95E9F71092AE0114
:101C10001092AF011092B0010E94D804CF910895A4
:101C2000D9DF88E198E00FB6F894A895809360001A
:101C30000FBE90936000FFCFA8E0B0E0E2E2FEE0CC
:101C40000C94501B8E010F5F1F4F88E0F80111921A
:101C50008A95E9F78BE4C82E81E0D82EF12CE12C8F
:101C6000AA24A394B12CF60181916F018F3F09F44E
:101C700043C0F894E82FE295EF70F0E021A18F7057
:101C8000A50102C0440F551F8A95E2F7CA01922FA1
:101C9000982B91A392A18095892382A3789400C068
:101CA000E3E5F1E0912C31E021912F3F09F44CC0A4
:101CB000A22FA295AF70B0E090968C9190E02F701B
:101CC00002C0959587952A95E2F780FD3DC0832F48
:101CD000982A330F51E0E935F50731F7F6013197CE
:101CE00080818F3F11F00E94520580EA8A95F1F7BA
:101CF000F801EE0DFF1D9082EFEFEE1AFE0AF8E0FC
:101D0000EF16F10409F0AFCF48E050E0B80188E8E1
:101D100091E00E94941B892BD9F088E0F801A8E893
:101D2000B1E001900D928A95E1F781E080938701FF
:101D30000E942D04909386018093850110E0812FED
:101D40002896EBE00C946C1B80E0C2CF10E021C021
:101D500010918701112391F3E0908501F0908601A5
:101D60000E942D048E199F09059740F348E050E02A
:101D700068E871E084E991E00E94941B892B31F3BB
:101D800088E0E8E8F1E0A4E9B1E001900D928A95DD
:101D9000E1F710928701D3CF1F93CF93DF93182FD2
:101DA000EB015BDA209731F4812F22DADF91CF91BA
:101DB0001F9108958FE99FE00197F1F700C000009F
:101DC0002197F0CFEF92FF920F931F93CF93DF9362
:101DD000C62FD42F022FFC0185818823A1F06093A8
:101DE00037020E942D049093360280933502C7700B
:101DF00081E001C0880FCA95EAF723D9CDB7DEB7D5
:101E0000E6E00C94711B80913702681332C0E090B9
:101E10003502F09036020E942D048E199F09883CED
:101E2000910538F510E21D0FCD17A9F080E28C0F57
:101E3000883038F4C77081E001C0880FCA95EAF78E
:101E4000FBD8183040F481E09D2F977001C0880FB7
:101E50009A95EAF7F6D870E060E0802F9DDF1830A1
:101E600068F6D77081E001C0880FDA95EAF7E4D808
:101E7000C5CFC77081E001C0880FCA95EAF7F7CFD8
:101E8000A4E0B0E0E6E4FFE00C944F1B7C01FC0111
:101E90008481882309F47FC061E0C701FDDD8C01E6
:101EA000F7018581882309F4E2C09801375720386B
:101EB000310508F08CC4003108F05FC066E572E0BF
:101EC00080E090E02ADD811158C0812C912C5401D2
:101ED00001111FC089829A82AB82BC824AE0842EA3
:101EE000CE01019627DD882309F447C0813009F02F
:101EF0006BC0CE0101961EDD8130F1F4CE0101965A
:101F000019DD70E060E0893311F460E570E044DFD2
:101F1000E7CFF7E58F16F2E09F06A104B10469F15F
:101F2000C501B401FADC811101C001502FEF821A02
:101F3000920AA20AB20ACCCF823029F4CE010196CD
:101F4000F9DC8BD9CDCF833029F4CE010196F2DCB8
:101F50004FD9C6CF843079F4CE010196EBDC10E086
:101F600000E0482F4053550B9A014A305105B8F014
:101F70000115110501F58111B3CF80917F018770A3
:101F800051F0F7018581882331F08091930182FF20
:101F900002C082E010DA2496ECE00C946B1B809E69
:101FA000C001819E900D11248901080F191FCE01D7
:101FB0000196C0DCD6CFEFE9FFE03197F1F700C022
:101FC000000001501109D4CFE82FF0E0E856FF4F90
:101FD0009490282F26952695269530E0F901E8570C
:101FE000FF4FC4908770D12C082E02C0D594C7949F
:101FF0000A94E2F7F1E0CF22DD24F901E858FF4F1F
:10200000A490B12C082E02C0B594A7940A94E2F7CC
:1020100041E0A422BB24F901E859FF4F049110E0EC
:1020200002C0159507958A95E2F701701127C11432
:10203000D10411F081EE11D9A114B10411F086EE92
:102040000CD970E060E0892DA7DEA114B10411F075
:1020500086EECED8C114D10411F081EEC9D8011595
:10206000110509F43DCF70E060E08CE250CFF8013B
:10207000E851FC47E730F10508F092C3E351F44E14
:102080000C943C1B26E241EE61EEC7019BDE75CF4E
:1020900027E245EE65EEF9CF26E241EE60EEF5CFA0
:1020A00027E245EE64EEF1CF26E241EE62EEEDCF9F
:1020B00027E245EE66EEE9CF28E241E0EBCF8091E2
:1020C000920181608093920192C080919301886017
:1020D000809393018CC0809192018260F3CF8091B4
:1020E00092018460EFCF809192018860EBCF809164
:1020F00093018160EDCF809193018260E9CF80915F
:1021000092018061DFCF809192018062DBCF80916C
:1021100092018064D7CF5EDD809192018068D2CF3A
:10212000809192018C60CECF809193018360D0CF5B
:10213000809192018E7FC6CF80919301877FC8CF17
:10214000809192018D7FBECF809192018B7FBACF1B
:1021500080919201877FB6CF809193018E7FB8CF17
:10216000809193018D7FB4CF809192018F7EAACF11
:10217000809192018F7DA6CF809192018F7BA2CF1B
:1021800029DD809192018F779DCF80919201837F8D
:1021900099CF809193018C7F9BCF8091920182FB9C
:1021A000992790F921E0922790FB82F990FB83F91F
:1021B00089CF80919301982F909591708E7F892B74
:1021C00090FB81F985CF90919201892F8F7B96FFAB
:1021D000806478CFFFDC90919201892F97FB87F97B
:1021E000805870CF61E08EE090E00E94BD1B60914E
:1021F00092017091930184E090E00E94D71BEADC89
:10220000BCCE60E0F0CF90919201892F8F7E94FF39
:10221000806158CF90919201892F8E7F90FF8160CD
:1022200051CF90919301892F877F93FF886050CF82
:1022300085E3BFC207375CE71507F9F008379CE76D
:10224000190729F19801205E32452032310508F541
:1022500081112DC00F7181E090E0FC0102C0EE0FF2
:10226000FF1F0A95E2F78F016E2F83E090E00E9436
:10227000BD1B802F0E94190880CE81E0B2D843E0B8
:1022800062E081E06FD879CE81E08AD8F8CF82E031
:10229000F5CF882381F10B353CE7130719F10C3595
:1022A0004CE71407A1F00A355CE71507C9F00130C7
:1022B000FCE71F07F9F003302CE71207A9F001151E
:1022C0003CE71307C1F486DC0E94190456CE8091C6
:1022D000930182FB882780F991E0892765DC4DCE48
:1022E00081E0FCCF80E0FACF6FEF7FEF90E080E0FD
:1022F0000E94D71B95DCF70100811181882309F426
:1023000047C0C80170DBD82E682FC8010E94E207C1
:10231000B8018D2D5CDB0E945C068C01882EF701D4
:10232000A580968092943FE0932280917F018770F0
:1023300001F1DA2CAA20F1F0812F807F803469F03E
:1023400080E2800F8830A8F0812F807E803229F4CF
:10235000F1E0F01770F4992061F08091930182FF11
:1023600008C082E028D880917F018770DD24D39453
:102370008111D12CC12EC2942FE0C2222BE02C154A
:1023800008F46AC0EC2DF0E0EC50F44E0C943C1BC9
:10239000C8010E94AE07D82EBBCF312F3F70B32E9D
:1023A000107F19F0B29490EFB922AA20B9F0BB20A7
:1023B00069F080E2800F883010F0811009C08091B0
:1023C0008201B82AB09282010E947A07802F42C00F
:1023D00080918101B82AB0928101F6CF802F0E94AE
:1023E000F808BB20C9F1005E083010F0811004C06D
:1023F0008B2D0E94730706C0B09480918101B82292
:10240000B09281010E947A0727C0412F4F70B42EED
:10241000107F103219F0B29480EFB822882051F06A
:1024200051E0851609F45DC0AA2009F469C099201D
:1024300061F1CCCF8091930182FD23C0AA20D9F015
:10244000BB2039F0809182018B29809382010E9408
:102450007A0780E00E942D092C2D2850330B243060
:10246000310508F06EC10E94C9040E94830960E032
:10247000C70112DB90CD80E00E94F808BB2061F319
:10248000B7CFAA2099F0911004C08B2D0E9421088B
:10249000E3CF81E09812E0CF809180019B2D9823BB
:1024A000B916D1F28B2980938001D6CF9110D4CF69
:1024B0008B2D0E941C08909180018B2D892329F07F
:1024C0008B2D8095892380938001909165018B2DC0
:1024D000892309F4C1CF8B2D8095892380936501D1
:1024E000BBCFAA2029F095E0991508F4B5CFCDCF40
:1024F000E4E0E91508F4B0CF8B2D0E941C08ACCFA6
:102500009920D1F3F9E38F1209C02FEF37EE43E0A2
:10251000215030404040E1F700C00000802F0E9471
:10252000F8089ACF812F86958695837061F0813067
:1025300009F092CFC8019370A11002C080E090E032
:102540000E947B0489CFC8019370A11002C080E073
:1025500090E00E94A20480CF6A2D802F0E942A085A
:102560007BCF812F837089F5A11076CF402F4295C4
:1025700046954770440F440F802F8F70042E01C082
:10258000880F0A94EAF7202F207104FF07C02FE07C
:1025900030E001C0220F4A95EAF72095169516956E
:1025A0001370123069F050F430919001113029F01D
:1025B000822B83230E9419084FCF832B822BFACFC3
:1025C000282B809190018227F5CF8695AA2011F0C3
:1025D000812F8170882309F43FCF402F4295469583
:1025E0004770440F440F802F8F70042E01C0880F56
:1025F0000A94EAF7202F207104FF07C02FE030E093
:1026000001C0220F4A95EAF720951695169513708A
:10261000123069F050F430919101113029F0822B81
:1026200083230E94AE0918CF832B822BFACF282B4D
:10263000809191018227F5CF1F70AA2029F0812F68
:102640000E94F109802F22CF802F0E941C08812F29
:102650000E94D00901CF802F52EF8516B1F1581595
:1026600070F090EF8916D1F0E1EF8E1691F0AA206C
:1026700009F457C09110AACE812F8F712AC0F3EFB1
:102680008F1651F124EF8212F2CF9091930192FDB7
:102690002FC0812F8F71AA20D9F21BC0AA2081F0F0
:1026A00034E0391508F4D8CE1F7181E090E0012E96
:1026B00001C0880F0A94EAF7909191018927B1CF60
:1026C00045E0491508F4C8CEEFCF812F8F71A110D6
:1026D000BFCF0E94F109C0CE80E0AA2009F4A1CFAB
:1026E0001F7181E0012E01C0880F0A94EAF799CF8B
:1026F000AA2061F0812F8F7192FFEBCF58E0859F68
:1027000090011124236020937F01E3CF81E00E9498
:10271000DB0981E0891508F09FCE82E00E94DB0989
:102720009BCE992059F0893309F0F8CE9FEFE7EE60
:10273000F3E09150E040F040E1F7EECE812F8F7151
:1027400087CFDD2009F493CE80917F0180FD8FCE6D
:10275000F70115828695869586950E94F109C70135
:102760008FDB80917F018695869586950E94D009A2
:102770007ECE0631FCE71F0709F05CCD8091820117
:102780008A7A91E009F490E09093640169E2811102
:1027900065E38CE591E00E9461040E947A07EDCB2D
:1027A00006312CE7120791F580916401811140CD2B
:1027B00089E2EEE5F1E024E631E09191891303C06E
:1027C000DF0111971C922E173F07B9F7E6CFF801EA
:1027D000E851FC47E730F10508F450CC109237027D
:1027E000980130572332310520F684E090E0B1D7CC
:1027F0009093930180939201F801E150F047E23207
:10280000F10508F05CCCE050F44E36C707379CE782
:10281000190709F439CD0837ECE71E0709F012CD86
:1028200082E033CDCF93DF9380917E01807F09F0EA
:102830004CC080917D01882309F447C0E0913402A7
:102840005091FB01C0917901D091780160917A019A
:1028500070917B0147E05E17C1F18E2F90E0E49FFD
:10286000F0011124E450FE4F2481222389F1489F76
:10287000F001499FF00D1124DF01A450BE4F1196C5
:102880002C9111972C1324C02C912D1321C0159637
:102890002C91159721111CC012962D913C91261B4D
:1028A000370B283C3105A0F480917E018F70806148
:1028B00080937E01EE5FFD4F80818F708061808309
:1028C00088E791E0DDDA0E94A407DF91CF910895B7
:1028D000FC013196E770BFCFA4E1B0E0E1E7F4E19D
:1028E000DEC68C0186E0F801DE011F9601900D9294
:1028F0008A95E1F7F8018481E58098E7A92E91E0B7
:10290000B92E90917C01911123C08823F1F0EE2023
:10291000D1F0C8019FD8F82E8823A9F087E0F801EC
:10292000D50101900D928A95E1F780917C0181306B
:1029300029F4809178019091790182D873DF8F2DED
:102940006496ECE0C8C6C8019BDAFF24F394F7CF85
:10295000D080C18082809380F0907D0120917A01A7
:1029600030917B01A401421B530BFF2009F4D1C01D
:10297000483C510508F08CC0882309F390917901F7
:1029800080917E01282F207F09F053C0C91213C007
:1029900090917801D9120FC0E11045C08F7080610D
:1029A00080937E0188E791E06BDA80917E01F801E7
:1029B0008683F12CC4CFE11036C06C2D8D2D0E9482
:1029C0007E036C2D8D2D0E947E03E82E8111F1CFA8
:1029D000DF86C88A8F85988933D8292F22952F7052
:1029E000243058F49F70223080F0992391F0F80140
:1029F0009681907F71F4FE2CA2CF2A5F2F70223037
:102A000060F0C8013DDAEF2CF6CF992311F088234E
:102A100091F3805E883078F3F4CF803F60F3815F7C
:102A2000833078F7E8CF80917E01816080937E01CA
:102A3000C0CFC91207C090917801D91203C0EE200F
:102A400009F488C0C80106D8882309F47CCFEE2099
:102A500009F479CF80917E01803280F02091780155
:102A600030917901398728879B868A8690917C01ED
:102A70009C871D868E87CE01089602DA87E0F801D2
:102A8000A8E7B1E001900D928A95E1F7CBDE5DCF2A
:102A900090917E01292F207F49F488E791E0F0D9B9
:102AA00087E0F50111928A95E9F783CF882309F42D
:102AB00046CF809179018C110FC080917801D81296
:102AC0000BC0E11009C09683C801DAD987E0F5018F
:102AD00011928A95E9F733CFC8010E942A0D882305
:102AE00009F431CFEE2009F42ECF80917E0180329F
:102AF00028F220917801309179013A8329839C82D0
:102B00008B8290917C019D831E828F83CE010196E2
:102B1000B4CF483C5105D0F6882309F416CFFE2CDB
:102B2000EE2009F410CF809179018C111FC08091A3
:102B30007801D8121BC080917E0180FD0EC0982FB5
:102B4000907F59F08683903F31F0982F907F905F6F
:102B50008F70892B8683C80193D987E0F801A8E795
:102B6000B1E001900D928A95E1F7E9CEC8010E948B
:102B70002A0D811183CF80917E01816080937E0137
:102B8000C8017ED9DCCEABE1B0E0E8ECF5E190C560
:102B90004E8B5F8B688F798F8A8F9B8F91111092EC
:102BA00081011D8A86E0FE017696DE011F96019066
:102BB0000D928A95E1F78B89882351F061E0CE016F
:102BC0000F960E944C0D61E0CE010F960E944C0DB5
:102BD00087E0FE013F96DE01189601900D928A95DE
:102BE000E1F7CE01089678DE81110CC087E0FE0186
:102BF0003896DE01119601900D928A95E1F78C8549
:102C000081110AC017E0809134029091FB01891371
:102C100030C06B96E3E068C52091FB0130E0C9014C
:102C2000019687709927409134024817190699F048
:102C300097E0929FD001939FB00D1124A450BE4FF6
:102C4000FE01319601900D929A95E1F78093FB0178
:102C50000E94A407D7CF0E94EA0D1092FB011092A8
:102C6000340287E0E8E7F1E0DF011D928A95E9F799
:102C7000C9CF819FC001112484509E4F2DDE88232F
:102C800041F28091340290E00196877099278093F9
:102C90003402B9CFA6E0B0E0EFE4F6E108C50E9447
:102CA0002D048C01809183019091840180179107FC
:102CB00079F019821A820E942D04682F49815A8165
:102CC000792F80E090E05FDF10938401009383010F
:102CD0002696E4E008C578941F921FB61F9211242F
:102CE0008F939F93AF93BF938091C2019091C30143
:102CF000A091C401B091C5010196A11DB11D8093A1
:102D0000C2019093C301A093C401B093C501BF91C8
:102D1000AF919F918F911F901FBE1F9018951F928A
:102D20001FB61F9211248F939F93AF93BF938091EF
:102D3000C101811113C08091C2019091C301A09182
:102D4000C401B091C5014196A11DB11D8093C2017E
:102D50009093C301A093C401B093C501BF91AF91FB
:102D60009F918F911F901FBE1F901895CDB7DEB712
:102D70002C970FB6F894DEBF0FBECDBF0E942D0476
:102D80009093C8018093C70180E890E00FB6F89453
:102D900080936100909361000FBE80E595E0909371
:102DA0005B0180935A013B9A439880916900886047
:102DB00080936900E99A8BE48093440280937902BE
:102DC000809350028AE58093430280937802809337
:102DD0004F02539A80E0815009F02BC153987894A8
:102DE00082E084BD93E095BD9AEF97BD80936E001D
:102DF0000E946E0C811102C00E94AF0D0BE411E025
:102E000043E5E42E41E0F42EF80181918F018F3FDC
:102E100011F00E945205E016F106B1F703E511E04A
:102E2000D8018D918D018F3F11F00E945205B1E0C4
:102E300009351B07A9F788E0E4E9F1E0DF01282F55
:102E40001D922A95E9F7E8E8F1E0DF011D928A95E5
:102E5000E9F790E080E07DD4833E9E4F21F40E940C
:102E60006E0C811123C063EE7EEF90E080E09FD472
:102E700060E082E090E081D481E08093900161E0A5
:102E800083E090E07AD460E074E184E090E08FD455
:102E90000E94AF0D40E050E0BA018FE090E07FD497
:102EA00040E050E0BA0183E190E079D482E090E024
:102EB00048D48093A40184E090E04BD49093930194
:102EC000809392010E941C0EEFEFF6E721E0E150A3
:102ED000F0402040E1F700C000000E941C0E8091ED
:102EE000940180FF07C06FEF7FEF90E080E05FD438
:102EF0000E94190483E090E024D40E941908809174
:102F000091010E949B093C9A449880E091E0909343
:102F1000BE018093BD013FEF80E792E031508040D9
:102F20009040E1F700C00000772473940E943904B8
:102F300000E41CE08111DCC00E94FB098091F401D7
:102F4000882309F4CFC18091430284FFCBC10E9442
:102F50001C0E25EAA22E21E0B22E34E9832E31E0A8
:102F6000932ED401F50191918D9121E0ED3AF20774
:102F700009F4C9C09817B9F30CE911E0512CD40138
:102F80004D904D01F50161905F01641409F43FC05B
:102F90006424F12CE12C33243394862D832161F1B8
:102FA000242C2320CC24C394D12C0E2C02C0CC0C76
:102FB000DD1C0A94E2F7D8018C9190E08C219D21D0
:102FC000892B99F4EF8258860E942D049A8789876D
:102FD000B1E0BB8791E0211001C090E09C874F8158
:102FE000588569857A858B85CEDD211005C0C09412
:102FF000F8018081C822C082330CFFEFEF1AFF0A6C
:1030000026E0E216F10449F6F50131974082539427
:103010000F5F1F4F38E05312B2CF8FB7F894409133
:10302000C2015091C3016091C4017091C5018FBF6D
:103030006DC0A895AFE9BFE01197F1F700C000009F
:10304000CACE8091C601882331F180E00E948309B5
:103050001092C101A8E1B0E00FB6F894A895A09332
:1030600060000FBE0093600083B7817F846083BFE0
:1030700083B7816083BF7894889583B78E7F83BF41
:103080000FB6F894A89580916000886180936000E5
:10309000109260000FBE0E941C0EE4E9F1E0ACE962
:1030A000B1E080E021912D9391E0211101C090E0E9
:1030B000892B2CE931E02E173F07A1F78823C1F0B7
:1030C000F8949AB15B9A892F8C608AB98BB1812769
:1030D0008BB93FE788E3A1E031508040A040E1F7A1
:1030E00000C000008BB181278BB99AB95B987894A6
:1030F0000E9439048111A5CF0E94EA0D0E94C904E3
:103100000E94830919CF981337CFC4DD86E0E5EB21
:10311000F1E0DE01119601900D928A95E1F7B090F1
:10312000B601D090B701E090B801C090B901F0901D
:10313000BA011092B7011092B8011092B901109221
:10314000BA018E2D8D2909F447C00091B301109169
:10315000B4010E942D049C01201B310B9091AE0103
:10316000992309F471C225313105B0F19F3F19F05F
:103170009F5F9093AE01DD2059F00E9422059FEFE2
:103180001D140CF491E0899F802D11248093B701C8
:10319000EE2059F00E94220591E01E140CF09FEFE2
:1031A000899F802D11248093B8018091B7018823D5
:1031B00099F01091B801112379F00E9442058823FB
:1031C00009F4A9C08093B701812F0E94420588238A
:1031D00009F4A4C08093B8018F2D8C2909F447C04D
:1031E0000091B1011091B2010E942D049C01201B9D
:1031F000310B9091AF01992309F421C2213531059A
:10320000B0F19F3F19F09F5F9093AF01CC2059F030
:103210000E9400059FEF1C140CF491E0899F802D03
:1032200011248093B901FF2059F00E94000591E01C
:103230001F140CF09FEF899F802D11248093BA01F9
:103240008091B901882399F01091BA01112379F086
:103250000E944205882309F464C08093B901812F3C
:103260000E944205882309F45FC08093BA018091CF
:10327000B601B81217C08091B701882311F08D11E3
:1032800011C02091B801222311F0E2120BC09091DD
:10329000BA01992311F0F91205C03091B901332315
:1032A00009F4BEC10E94D80486E0FE013196A5EB68
:1032B000B1E001900D928A95E1F70E94C9049091C6
:1032C000AD01891779F08093AD019FB7F8944091D3
:1032D000C2015091C3016091C4017091C5019FBFAB
:1032E0000E9483090E94FB098091F401882309F45C
:1032F0001DCE80914F0284FF19CE8091E90180326A
:1033000009F014CEE091C901E150E33108F5F0E095
:10331000EE5DF34EB1C17092B70156CF7092B80115
:103320005BCF7092B9019BCF7092BA01A0CF10927F
:10333000CA018DE08093CB0132C08091CA018330F5
:1033400009F43FC048F48130B1F0823009F46DC116
:103350008FEF8093C90123C0843009F441C08630C7
:10336000B9F71092CB011092CC011092CD0189E0F7
:103370008093CE0114C02FB7F8946091C201709170
:10338000C3018091C4019091C5012FBF7BD160938F
:10339000CB017093CC018093CD019093CE01E0914D
:1033A000BD01F091BE01309749F00284F385E02D14
:1033B000309721F060E289EC91E009951092E901E3
:1033C000B5CD2091CB01822F90E0ECECF1E0245EB2
:1033D0008830910520F7119201962813F9CFDFCF9D
:1033E0001092CB011092CC011092CD011092CE011F
:1033F000D6CF8091CA01823019F0853081F2A8CFF2
:103400006091CB017091CC018091CD019091CE0162
:1034100039D188E290E0B1D1C2CF4091CC01609126
:10342000CB018091CA010E94B80C98278927982760
:103430009093CE018093CD01B2CF2091CD013091F8
:10344000CE013227232732274091CC016091CB0156
:103450008091CA010E94110CA2CF0E94370C9FCF0D
:1034600080E18093CA019BCF82E08093CA0187E507
:1034700061CFC090CA01D090CB01DC24CD24DC24E4
:103480008090CC01912CB12CA12C1601512C412CF7
:1034900087E5C81A8EEFD80A89ECE82E81E0F82E6D
:1034A00010E000E0C601800F911FA80170E060E00D
:1034B000481559056A057B0508F071CF420D531D6B
:1034C000641D751D473552406105710548F439D1B9
:1034D000F70184830F5F1F4FBFEFEB1AFB0AE2CFA8
:1034E000D70114961C92F6CF0091CA011091CB011E
:1034F0001027012710278090CC01912CB12CA12CF2
:103500001801512C412C07551E4FF12CE12CC801FC
:103510008E0D9F1DA70170E060E0481559056A05F2
:103520007B0508F03CCF420D531D641D751D4735CA
:1035300052406105710528F4F701E753FE4F64819D
:103540001CD1FFEFEF1AFF0AE2CF0E94730D27CFC5
:1035500084E087CF8090CC01912CB12CA12CC0901D
:10356000CA01D090CB01DC24CD24DC24F12CE12C49
:1035700009EC11E0212C312C2101C6018996281477
:1035800039044A045B0408F00ACF20E8C21621E09F
:10359000D206E104F10488F4D4D0D80114968C93B7
:1035A000FFEF2F1A3F0A4F0A5F0A0F5F1F4F2FEFDF
:1035B000C21AD20AE20AF20AE0CFF8011482F0CF6E
:1035C0008090CC01912CB12CA12CC090CA01D0903C
:1035D000CB01DC24CD24DC24F12CE12C212C312C5A
:1035E0002101C6018996281439044A045B0408F0B5
:1035F000D6CE30E8C31631E0D306E104F10428F456
:10360000F101E753FE4F6481B8D08FEF281A380AD2
:10361000480A580A9FEFC91AD90AE90AF90AE1CFFC
:10362000822B892B09F440CE3DCE88E290E089D0F0
:103630001092CB011092CC011092CD0199CE2B307B
:10364000310508F0E0CD13CE2B30310508F090CDD8
:10365000C3CD97FB072E16F4009406D077FD08D053
:103660004FD007FC05D03EF4909581959F4F08956B
:10367000709561957F4F0895EE0FFF1F0590F491AF
:10368000E02D0994692796276927782787277827C7
:1036900008952F923F924F925F926F927F928F92F6
:1036A0009F92AF92BF92CF92DF92EF92FF920F93D1
:1036B0001F93CF93DF93CDB7DEB7CA1BDB0B0FB6DB
:1036C000F894DEBF0FBECDBF09942A883988488898
:1036D0005F846E847D848C849B84AA84B984C8842E
:1036E000DF80EE80FD800C811B81AA81B981CE0F25
:1036F000D11D0FB6F894DEBF0FBECDBFED0108950A
:10370000AA1BBB1B51E107C0AA1FBB1FA617B70707
:1037100010F0A61BB70B881F991F5A95A9F7809523
:103720009095BC01CD010895FB01DC0104C08D9191
:103730000190801921F441505040C8F7881B990B23
:103740000895F999FECF92BD81BDF89A992780B569
:103750000895A8E1B0E042E050E02FC0DC01A40FE2
:10376000B51F4150504040F0CB01840F951F2E9162
:1037700005D041505040D8F70895262FF999FECF33
:1037800092BD81BDF89A019700B4021639F01FBAB4
:1037900020BD0FB6F894FA9AF99A0FBE08950396D1
:1037A000272FECDFEADF252FE9DF242FE7CF019673
:1037B000272FE4DFE2CFDC01CB01FC01F999FECF3A
:1037C00006C0F2BDE1BDF89A319600B40D924150A9
:1037D0005040B8F70895F894FFCF4C1050104210A5
:1037E0004810541058105C10CD11CD11051205125F
:1037F0009212AC122C122C12B1121C132B132B137D
:1038000098100A11A0106B106F10A4107310A8105C
:10381000B4107F1003118310B8108710BC10E31090
:103820008B10C010EA109010C510CD107710AC109E
:103830007B10B0109410C910D910F210011165104E
:103840009C10111197199D19F9190D1A1D1A2D1A8D
:10385000A819A819A819A819A819301A341A391AB8
:0A386000741AA51AA81AAA1AE01A91
:10386A005E04F60B1804F10BEC0B090C00000100C6
:10387A00FF5A818283E200E900EA00B500B600B788
:10388A0000CD008301CC008A019201940121022318
:10389A000224022502260227022A02B300B4006F7C
:1038AA000070009F01CB019F02A002909194956540
:0A38BA006135313433323097960047
:00000001FF
