:100000008CC10000A7C10000BFC10000A3C1000057
:10001000A1C100009FC100000C9409179BC1000002
:1000200099C1000097C1000095C1000093C1000074
:1000300091C100008FC100000C9480178BC100009B
:1000400089C1000087C1000085C1000083C1000094
:1000500081C100007FC100007DC100007BC10000A4
:1000600079C1000077C100002B0014001A000800BD
:1000700015001700E00004001600070009000A0040
:10008000E1001D001B000600190005002900E30027
:10009000E200000021522C002A00130012000C0084
:1000A00018001C00340033000F000E000D000B0080
:1000B0002800380037003600100011004F005200B1
:1000C0005100500022522C0035001E001F0020005D
:1000D0002100220001003A003B003C003D003E00B0
:1000E00001004000410042004300440001000100C3
:1000F00001000100010001004C002700260025003E
:1001000024002300310030002F002E002D003F007E
:1001100001004E004B006400320045004D004B00D2
:100120004E004A000100010035021E021F0220029B
:100130002102220201000100010001000100010072
:1001400001000100010001000100010001000100A7
:1001500001000100010001004C00270226022502D7
:1001600024022302310230022F022E022D0201004E
:10017000010001000100010001000100AE00A90022
:10018000AA00AB0001000100007C01000100010099
:100190000100010001000100010001000100010057
:1001A0000100010001000100010001000100010047
:1001B0000100010001000100010001000100010037
:1001C0000100010001000100010001000100010027
:1001D0000100010001000100010001000100010017
:1001E000010001000100010009023B00020100A022
:1001F000320904000001030101000921010100018D
:1002000022440007058103080001090401000103DD
:10021000000000092101010001227D000705830380
:1002200008000112011001000000086E6B47450034
:1002300001010200010C0365007500670065006F95
:1002400000000010036B006F006E00690066006123
:1002500000720000000403090405010902A10185E0
:10026000020901A1000509190129081500250195B8
:1002700008750181020501093009311581257F9535
:10028000027508810609381581257F950175088159
:1002900006050C0A38021581257F9501750881062F
:1002A000C0C005010980A10185031A01002A8F0041
:1002B000160100268F00950175108100C0050C09FC
:1002C00001A101850419012AA002150126A00295A9
:1002D0000175108100C005010906A101050719E09B
:1002E00029E715002501950875018102950175081A
:1002F00081030507190029FF150026FF00950675E3
:1003000008810005081901290515002501950575C5
:10031000019102950175039103C011241FBECFEF17
:10032000D8E0DEBFCDBF11E0A0E0B1E0ECE3F7E341
:1003300002C005900D92AA39B107D9F722E0AAE9C7
:10034000B1E001C01D92A83BB207E1F70E9458112D
:100350000C94671B55CEA82FB92F80E090E041E0A8
:1003600050EA609530E009C02D91822797958795D6
:1003700010F084279527305EC8F36F5FA8F30895C7
:10038000EADF8D939D930895CF93CFB7CF93DF93FB
:10039000C3954B9BE9F74B9B10C04B9B0EC04B9BEF
:1003A0000CC04B9B0AC04B9B08C04B9B06C0C09126
:1003B0008F02C395C0938F028EC06F93C0918E023F
:1003C000DD27CA56DD4F2F9365E54B9B03C02F9168
:1003D0006F91E1CF0F931F934F9320E040E15F9324
:1003E00009B10C7003FB27F93F9350E03BE039C0A3
:1003F0001C7040642F77012F5F5F1EC0406819B1E9
:100400001C702F7752501FC0406409B12F770C70B9
:10041000D1F15F5F00C023C0406219B12F771C701B
:1004200091F15F5F00C025C00C701027515012F48D
:100430005D5F0000115027952C3F19B1C8F61C7064
:100440000127015027952C3FC8F64227499309B14F
:100450000C7010274F73115027952C3FA8F6469526
:10046000469519B11C7079F00127015027952C3F52
:1004700098F66B5A60F3315009B1B0F600C012E043
:100480001CBB00271CC03B503195C31BD04012E061
:100490001CBB0881033C21F10B3411F120918B022C
:1004A0001981110F1213EDCF4A81441F093679F1DA
:1004B0000D3211F0013E29F74F7009F0042F00931F
:1004C00094023F915F914F911F910F912F916F91E6
:1004D000CCB3C1FD5DCFDF91CF91CFBFCF91189548
:1004E00020919402222369F310919202112309F0C2
:1004F00049C034300AF448C03093920220938D02F0
:1005000010918E023BE0311B30938E023DC0009172
:1005100092020130BCF50AE54F7049F4309119019F
:1005200034FD33C000931901C8E6D2E032C0433035
:1005300059F0443091F03091730234FD26C000939D
:100540007302C4E7D2E025C03091AC0234FD1DC077
:100550000093AC02CDEAD2E01CC030917F0234FDA2
:1005600014C000937F02C0E8D2E013C0052710E05A
:1005700000C000000BB91AC0052710E0221F1DC0E3
:1005800010E021C04AE502C032ED432FC4E1D0E0C3
:1005900032E01AB11C605B9A0BB11AB95CE020E83A
:1005A00065E320FF05270BB9279517951C3FF0F64B
:1005B0006695B8F7B1F720FF05270BB92795179572
:1005C0001C3FD0F62795179517FF052700001C3F05
:1005D0000BB9B0F629913A9519F7037F1091930260
:1005E000110FC651D0400BB911F010938B0212E0DD
:1005F0001CBB08601AB1137F402F437F54E05A950B
:10060000F1F70BB91AB94BB95CCF3B9A43980C94EC
:10061000DB0CCF93DF930BD0EC0109D1882329F0B9
:10062000439ACE01DF91CF9108954398FACF23E00A
:1006300042E061E0BCC58430B8F46830A8F44630CC
:1006400098F450E096E0699F400D511D1124FA0185
:1006500090E3899FE00DF11D1124EE0FFF1FE85973
:10066000FF4F85919491089581E090E00895E3CF44
:10067000089581E00895FDCF0895FBCF0895F9CF47
:100680000895F7CF0895FDCF089508950895FDCFFB
:10069000089508950895A6E0B0E0E1E5F3E00C9434
:1006A000E31A49835A839E833091A10189819A81FB
:1006B000311117C03E81332389F0222379F01FD5F1
:1006C000182F682F89819A81F9D469817A81812FC5
:1006D0000E94970E2696E3E00C94FF1A00D5182F7F
:1006E000F4CF0DD569817A81F3CFFC01262F4081AB
:1006F00051816281738184819581CDCFCF93DF93C6
:10070000EC0161E0F2DFBE01B6DF882349F061E071
:10071000CE01EBDFBE01B1DF8170DF91CF91089593
:1007200080E0FACF0F931F93CF93DF93EC0160E04B
:10073000DCDF8C01BE01AADFBE01C801A8DFDF91AA
:10074000CF911F910F9108950F931F93CF93DF9334
:10075000EC0161E0CADF8C01BE0191DF811106C0AE
:1007600080E0DF91CF911F910F910895BE01C801E4
:100770008ADF8823A9F3BE01C8010E942E158823B1
:1007800079F3BE01C8010E948E11882349F3BE018E
:10079000C8010E946811882319F3BE01C8010E9494
:1007A000990F8823E9F2BE01C8010E94AB0F88238C
:1007B000B9F2BE01C8010E94C40FD3CF21E030E0DE
:1007C000A90102C0440F551F8A95E2F7CA01B3C3BD
:1007D000CF93C82F81E090E00C2E02C0880F991FA4
:1007E0000A94E2F70E949B0C8C2FE8DFCF910895CA
:1007F00081E00895FDCF0895FBCF0895CF93C82FD2
:1008000052D38C2FF7DF8C2FF7DFCF91089581E043
:10081000F5DF0C94A41780E0F1DF0C94B81739DFF2
:100820000E94B61642C043D035DF0C94BA16292F69
:10083000332740E02115310511F0C90148E09C0142
:1008400064E0369527956A95E1F72115310511F099
:100850004C5FC9019C013695279536952795211542
:10086000310511F04E5FC90196958795892B09F0E6
:100870004F5F842F089581E0089581FF02C0449A5C
:10088000089544980895CF93DF93D82FF4DFC82FAD
:10089000882311F08D2FF1DF8C2FDF91CF910895F8
:1008A0003C9A44980895EFCF089580E0FCCF0E94D1
:1008B0007715F9CFCF930E947715C82F80919C01AF
:1008C0008C1771F0C0939C010E94741760939D0176
:1008D00070939E0180939F019093A0018C2FE3DF82
:1008E000CF910895ADE0B0E0E8E7F4E00C94E41AAD
:1008F000488759876A877B878C879D87911146D760
:100900001F8286E0FE013896DE01119601900D925D
:100910008A95E1F78D8181110CC029813A814B8143
:100920005C816D817E818F8181D62D96E2E00C9471
:10093000001BCE010196E2DE8111EFCFF6CFFC0164
:100940002481213019F4808191810AC4089566239D
:1009500021F00E94E7120C94B2130E943913FBCFCE
:10096000CF93C82F882389F08CEF8C0F813A78F4CD
:100970008C2F0E940416882321F08C2F0E9445168C
:1009800059D78C2F0E943F1655D7CF91089580E2FA
:100990008C0F883040F4C77081E001C0880FCA9581
:1009A000EAF7D7D6F1CFEBE5EC0FE33040F4F0E017
:1009B000E05BFE4F808190E00E94A515E6CFE8E560
:1009C000EC0FEB3150F4F0E0EE0FFF1FE65EFE4F50
:1009D000808191810E94CA15D8CF83E38C0F833127
:1009E000A0F661E08C2FB3DFD0CF882351F19CEFCC
:1009F000980F913A18F40E9445161CC790E2980F80
:100A0000983048F4877091E001C0990F8A95EAF711
:100A1000892FA5D6F2CF9BE5980F933020F490E074
:100A200080E00C94A51598E5980F9B3120F490E098
:100A300080E00C94CA1593E3980F933110F460E0B2
:100A400086CF08951F93CF93DF93182FEB0188DF94
:100A5000209731F4812FC9DFDF91CF911F91089545
:100A60008FE99FE00197F1F700C000002197F0CFD8
:100A700070E060E0893311F460E570E0E3CF882333
:100A800011F067D6D7C60895882311F068D6D2C66C
:100A90000895B0E0A0E0EFE4F5E00C94DD1A6C01FD
:100AA000D62FC72FFC011581068102950F7047D6FE
:100AB000E82E8823E9F0E12E1123D1F08C2F807FDE
:100AC000803461F080E28D0F8830F8F08C2F807ECA
:100AD000803221F4D230C8F00023B9F08091530263
:100AE00082FF13C082E0C2D62AD691E0E82EE92622
:100AF000BC2EB2949FE0B922FBE0FB1580F1EB2DF8
:100B0000F0E0E759F44E0C94CE1AE12CF1CF0C2F03
:100B10000F70C07F11F00295007F112381F0002338
:100B200049F080E28D0F883010F0D11105C0802F80
:100B300010D680D68D2F40C0802F1BD6FACF8D2F98
:100B400054DF002361F080E28D0F883010F0D11166
:100B500003C0802F04D602C0802F11D66BD6EB2D98
:100B6000E850FF0B349708F04CC10E9477159BDECC
:100B7000CDB7DEB7E9E00C94F91A2C2F2F70F22EC6
:100B8000C07FC03219F0F29480EFF822DD2341F0EB
:100B9000D13081F1112309F439C00023C9F0CACF43
:100BA0008091530282FD10C0112341F0FF2019F003
:100BB0008F2DCFD53FD680E0D3DED1CF80E015DFBB
:100BC000FF2069F28F2DC6CF112359F0011103C008
:100BD0008F2D55DFC4CF013009F0C1CF8F2DEAD55D
:100BE000BECF0111BCCF8F2D4FDF8F2DEED58F2DB6
:100BF000D3D5B5CF112321F0063008F0B0CFE8CF20
:100C0000053008F0ACCF8F2D3FDFA9CF0023D9F3FB
:100C1000D93349F43FEF87EE93E031508040904064
:100C2000E1F700C000008D2FE0DE99CF8C2F869574
:100C30008695837069F0813009F091CF8D2F9C2FBC
:100C40009370111102C080E090E00E94CA1587CF16
:100C50008D2F9C2F9370111102C080E090E00E94B4
:100C6000A5157DCF612F8D2F72DE79CF8C2F8370EC
:100C700081F5111174CF4D2F429546954770440F61
:100C8000440F2D2F2F7030E0042E02C0220F331F8F
:100C90000A94E2F790E080E0D4FF09C08FE090E092
:100CA00002C0880F991F4A95E2F780959095C695E6
:100CB000C695C370822B932BC23039F040F4C130FB
:100CC00011F042D14CCF39D14ACF45D148CF33D1A1
:100CD00046CF8695112311F08C2F8170882309F45B
:100CE0003ECF4D2F429546954770440F440F2D2F10
:100CF0002F7030E0042E02C0220F331F0A94E2F757
:100D000090E080E0D4FF09C08FE090E002C0880F3F
:100D1000991F4A95E2F780959095C695C695C37040
:100D2000822B932BC23039F040F4C13011F063D1E3
:100D300016CF5AD114CF66D112CF16D110CFCF70A3
:100D4000112321F08C2F24D18D2F43CF8D2F9CDEAA
:100D50008C2F2CD104CFD23F39F160F4D03FB9F0C1
:100D6000D13F81F0112309F43CC00111E3CE8C2F57
:100D70008F711EC0D33FF1F0D43FA1F78091530291
:100D800082FD20C08C2F8F71112319F311C0112304
:100D900039F0053008F0E3CE8C2F8F7117D1DFCEFC
:100DA000063008F0DCCEF8CF8C2F8F711111D1CF27
:100DB000EFD0D5CE112321F08C2F8F71DFD0CFCE85
:100DC000DAD0CDCE112329F063E08C2F8F7137D587
:100DD000C6CE81E04BD5023008F4C1CE82E046D5C4
:100DE000BECE002359F0D93309F01DCFEFEFF7EE57
:100DF00023E0E150F0402040E1F713CF8C2F8F71BA
:100E0000A8CFEE2009F4B4CE96D480FDB1CEF60181
:100E100015828BD4BDD0C60117D087D4C7D0A8CE39
:100E20000F931F93CF93DF93EC01688179818D81BC
:100E3000A0D18C01EED07ED0B801CE012ADEDF91A8
:100E4000CF911F910F910895CF93DF93EC018C8187
:100E5000882381F0CE0178DC81110FC070D4882303
:100E600049F08D81882331F08091530282FF02C0C6
:100E700082E0FCD4DF91CF910895CE01D1DFCE0185
:100E800051DCF8CF90E080E00E94A51590E080E072
:100E90000E94CA157BD4CED40E94CB130C94B213FB
:100EA0000E944B16EFCF62D4FBCF92959F70963085
:100EB00091F058F4925F9F70923058F4803F19F08F
:100EC00030F4883E30F481E008959A5FF4CF843F97
:100ED000D1F380E00895883EB0F3813FD1F7F3CF9E
:100EE000FC012481222321F08081918139D1DDCF41
:100EF00080E00895A6E0B0E0E0E8F7E00C94E41AA2
:100F00002696E2E00C94001BA7E0B0E0EAE8F7E0E8
:100F10000C94E41A2796E2E00C94001B0895FECF8F
:100F20000895FDCF0895FADFFCDF9093BD01809313
:100F3000BC0108950895F7CF08952091BC01309128
:100F4000BD01822B932BEFCF2091BC013091BD01CD
:100F500082239323E8CF2091BC013091BD018227E9
:100F60009327E1CFDBCF0895FDDF53DB9093BB01E7
:100F70008093BA01089590E080E0F6CF21E030E060
:100F8000A90102C0440F551F8A95E2F7CA01ECCFB0
:100F900021E030E002C0220F331F8A95E2F78091F2
:100FA000BA019091BB01822B932BDECF21E030E080
:100FB00002C0220F331F8A95E2F720953095809169
:100FC000BA019091BB0182239323CECF21E030E080
:100FD00002C0220F331F8A95E2F78091BA019091E7
:100FE000BB0182279327C0CF2091BA013091BB016A
:100FF000822B932BB9CF2091BA013091BB01822370
:101000009323B2CF2091BA013091BB01822793275D
:10101000ABCF0895262F277091E001C0990F2A9534
:10102000EAF723E0769567952A95E1F7660F771F33
:10103000660F771FFA01E60FF71F50E040E0682FB8
:1010400070E08191DF0111979B01042E02C036955B
:1010500027950A94E2F7217021952827292328272C
:101060002C934F5F5F4F4430510559F70895A82FD7
:10107000A77023E0969587952A95E1F7880F991F29
:10108000880F991FFB01E80FF91F50E040E080E056
:10109000219130E00A2E02C0369527950A94E2F796
:1010A00021703327042E01C0220F0A94EAF7822B05
:1010B0004F5F5F4F4430510559F70895262F983000
:1010C00068F4863058F4682F70E086E0989F600DD1
:1010D000711D112442EA51E0822F9CCF0895292FDF
:1010E000983058F4863048F490E062EA71E036E0D7
:1010F000239F800D911D1124BACF80E00895B0E0A8
:10110000A0E0E5E8F8E00C94DD1A7C010091BA015A
:101110001091BB018091BC019091BD01082B192B4E
:10112000CFE0D0E0CC24C394D12CBC2EC6010C2E31
:1011300002C0880F991F0A94E2F780239123892B1C
:1011400049F4219790F7B12C8B2DCDB7DEB7E9E0AC
:101150000C94F91AB7018C2FF5D5019791F3F4CFC0
:10116000CF93DF93EC01CBDFBE01ECD5DF91CF91C4
:1011700008951F93CF93DF93EB019091A1019923E1
:1011800031F0CB01EDDFDF91CF911F9108958823DE
:1011900051F0CB01B4DF182F682FCE018FDFBE01D5
:1011A000812FD0D5F0CFCB019ADF182FF8CFE1E017
:1011B000F0E0DF0102C0AA0FBB1F6A95E2F7BD0194
:1011C000DF0102C0AA0FBB1F4A95E2F7AD01462B13
:1011D000572B02C0EE0FFF1F2A95E2F79A01282332
:1011E00039232417350719F48E2B9F2B0895E0958A
:1011F000F0958E239F2308951F93CF93DF93C09183
:10120000BE0117E08091BF018C1304C0DF91CF9124
:101210001F910895D0E01C9FF0011D9FF00D112437
:10122000E054FE4F20813181428153816481758178
:1012300086816ADE2196C770E5CF2091F801309152
:10124000F9014091FA015091FB016091FC0170910C
:10125000FD018091FE0158CECF93DF938091FE0176
:10126000807F09F04BC08091FD01882309F446C0BE
:10127000E091BE015091BF01C091F901D091F801F8
:101280006091FA017091FB0147E05E17B9F18E2F72
:1012900090E0E49FF0011124E054FE4F24812223CA
:1012A00081F1489FF001499FF00D1124DF01A05406
:1012B000BE4F11962C9111972C1323C02C912D13F6
:1012C00020C015962C91159721111BC012962D91B7
:1012D0003C91261B370B283C310598F48091FE0188
:1012E0008F7080618093FE01EA53FE4F80818F7082
:1012F0008061808388EF91E0A7DD7EDFDF91CF9171
:101300000895FC013196E770C0CF482F2091BE01AF
:101310009091BF0157E0291302C080E0089530E0AA
:10132000529FF001539FF00D1124E054FE4F818134
:10133000681306C08081481303C085818111EECFF8
:101340002F5F3F4F2770E7CFA4E1B0E0EAEAF9E072
:101350000C94DA1A8C0186E0F801DE011F960190E8
:101360000D928A95E1F7F8018481E58098EFA92E26
:1013700091E0B92E9091FC0191111AC08823A9F037
:10138000EE2089F0C801ACDDF82E882361F087E0FB
:10139000F801D50101900D928A95E1F7C501CFDAE8
:1013A0005BDF4BDF59C0C8014FDDFF24F39454C00D
:1013B000C080D18082809380F090FD012091FA015D
:1013C0003091FB01A401421B530BFF2009F4E9C03B
:1013D000483C510508F09CC0882309F43DC0909119
:1013E000F9018091FE01282F207F09F056C09D1140
:1013F00014C09091F801C91210C0E11048C08F705C
:1014000080618093FE0119DF88EF91E01DDD8091FE
:10141000FE01F8018683F12C1FC0E11038C06D2D4C
:101420008C2D73DF6D2D8C2D70DFE82E8111F3CFA5
:10143000CF86D88A8F85988993DE292F22952F70A1
:10144000243078F49F702230A0F09923B1F0F80195
:101450009681907F91F4FE2C8F2D6496ECE00C9495
:10146000F61A2A5F2F70223060F0C801EDDCEF2CF5
:10147000F2CF992311F0882371F3805E883058F3FE
:10148000F4CF803F40F3815F833078F7E4CF8091E1
:10149000FE0181608093FE01BECF9D1112C090912C
:1014A000F801C9120EC0E1100CC08683C801CCDC63
:1014B00087E0F801A8EFB1E001900D928A95E1F77D
:1014C00070CFC8010DDD882309F46DCFEE2009F43B
:1014D0006ACF8091FE01803280F02091F801309136
:1014E000F901398728879B868A869091FC019C8721
:1014F0001D868E87CE010896A7DC87E0F801A8EF4D
:10150000B1E001900D928A95E1F7A6DE96DE4DCF0F
:101510009091FE01292F207F89F4682D9A8A898A6B
:10152000A6017A899E2DE6DC88EF91E08DDC87E0CC
:10153000F50111928A95E9F780DE6DCF882309F4D1
:101540008BCF8091F9018D110FC08091F801C812E5
:101550000BC0E11009C09683C80176DC87E0F50175
:1015600011928A95E9F778CFC801BADC882309F48B
:101570001ACFEE2009F417CF8091FE01803208F4D3
:10158000BCCF2091F8013091F9013A8329839C82E4
:101590008B829091FC019D831E828F83CE010196E8
:1015A000ABCF483C5105A8F5882309F4FECEFE2CAC
:1015B000EE2009F4F8CE8091F9018D111EC08091C2
:1015C000F801C8121AC08091FE0180FD0DC0982F4D
:1015D000907F51F08683903F09F468CF982F907FD9
:1015E000905F8F70892B61CF87E0F801A8EFB1E0A1
:1015F00001900D928A95E1F72FCFC80171DC81111E
:101600007CCF8091FE0181608093FE01C8011CDCCB
:1016100023CF682D9A8A898AA6017A899E2D6ADC51
:1016200087E0F50111928A95E9F7BBCEAEE0B0E014
:10163000ECE1FBE00C94E31A288739874A875B8743
:101640006C877D878E87CE0108967EDE8823A9F081
:101650006C85662339F0288539854A855B857D85CB
:101660008E8552DC17E08091BE019091BF018913F5
:101670003BC02E96E3E00C94FF1A87E0FE013896FB
:10168000DE01119601900D928A95E1F78C858823F1
:1016900049F32091BF0130E0C90101968770992775
:1016A0004091BE014817190691F097E0929FD00132
:1016B000939FB00D1124A054BE4FFE0131960190AE
:1016C0000D929A95E1F78093BF0196DDCBCFEBDBCE
:1016D0001092BF011092BE0187E0E8EFF1E0DF0158
:1016E0001D928A95E9F7BECF819FC00111248054D5
:1016F0009E4F2ADE882309F4BCCFE091BE011E9FD5
:10170000F0011124E054FE4F208131814281538148
:10171000648175818681F8DB8091BE0190E001963D
:10172000877099278093BE019ECF8091FF01869597
:101730008695869508958091FF0187700895909110
:10174000FF01977081E009F480E0089580910B0219
:10175000089590910B02892B80930B020895809538
:1017600090910B02982390930B02089510920B0214
:10177000089590910A02892B80930A02089580951A
:1017800090910A02982390930A02089510920A02F7
:1017900008950895FECF089590910002292F2823DF
:1017A00029F08095892380930002F4CF089508954D
:1017B000FECF089590910102292F2823281721F0A8
:1017C000982B90930102F4CF089590910102292F54
:1017D000282329F08095892380930102E9CF089579
:1017E00080910102882321F01092010280E0E0CF75
:1017F00008950F931F93CF93009100011091010161
:10180000C0910B0280910A02C82B809101028823AB
:1018100029F0C82B0E94EF158111E2DFF801C08387
:1018200080910001909101010E948615CF911F9136
:101830000F910895DECF08950895FECF08959091F9
:10184000530292FF0EC098E0899F90011124622BF1
:101850006093FF019DDB8091FF01869586958695BB
:10186000ECCF96CB1092FF0180E0E7CF9091FF0183
:10187000809589238093FF01282F277059F48917B9
:1018800049F09091530292FF05C086958695869502
:101890008DDBE8CF08959091530292FB222720F927
:1018A000281749F080FB92F99093530282E592E069
:1018B00046D082E0DBCF08958091530282FB8827D7
:1018C00080F991E08927E7CF81E0E5CF80E0E3CFA1
:1018D00060E070E0CB01BFC360E070E0CB01B5D346
:1018E000F7CFA3E0B0E0E7E7FCE00C94E41A66D39E
:1018F00071D31B82CE01039684D381E090E0909354
:10190000BD018093BC0189D31A8219828A818461C6
:101910008A83CE01019692D3DFDF2396E2E00C9416
:10192000001BDFCF08955CC3089549C308955EC3CB
:1019300008956DC3089571C3089574C308957EC357
:1019400008958FC308950895A6E0B0E0EAEAFCE0A8
:101950000C94E21A0E9468178C0180910C029091FD
:101960000D028017910781F019821A820E94681770
:10197000682F49815A81792F80E090E00E9472049B
:1019800010930D0200930C022696E4E00C94FE1ACC
:101990000E947417609312027093130280931402D2
:1019A0009093150260930E0270930F0280931002C1
:1019B000909311020895089508950895FEDF0C9400
:1019C00005030895FECF08950895FEDFFBCF87E954
:1019D0009FE079D4F1DFF2CF81E00895FDCF089543
:1019E000FBCF0895089508950895FCDFFCDFFCCF38
:1019F0009CDF811101C095DF86E192E098DF82E5EE
:101A000092E09BDF96DF97DA8091BA019091BB015B
:101A10000E94090398CF0E945F17C9D3E9DF0E9493
:101A200075150E945004D1CFA6E0B0E0EAE1FDE0D8
:101A30000C94DB1AD3DF81110AC086DF0E94761571
:101A4000CCD60E945A042696EBE00C94F71AC0D329
:101A50008AE4A82E82E0B82E750110E0F70101910A
:101A60007F01812F09D31F5F183009F446C0081782
:101A7000A9F38091160281FD05D3B2DF982E10E004
:101A8000812FFAD2F82EF50181915F01F81681F1CC
:101A9000DF2CD82600E0EE24E3948D2D8E2109F171
:101AA000CC24C3948F2D8E2109F4C12C9920A1F050
:101AB000602F812F0E94DA1681110EC009831A83CC
:101AC0000E946817682F8B839C8349815A81792FE4
:101AD00081E09C2D0E9472044C2D602F812F0E946A
:101AE000EE160F5FEE0C0630C1F6F5013197F0826D
:101AF0001F5F183029F64CDFA1CF0813BACF9DCF56
:101B00001F93CF93DF9320D1EC01C11580E5D80757
:101B1000F0F5C11580E4D80708F09AC0C03ED105A1
:101B200020F5CD3CD10508F082C0C83AD10578F443
:101B3000C53AD10508F073C0C130D10519F120971D
:101B400009F1C430D105F0F4D0E0C0E01BC0C33CC3
:101B5000D105D0F7C85AD0E0CC0FDD1FCD5ADE4FEB
:101B60000990D881C02DD4640DC0C11580E2D8077A
:101B700008F0CDC0C11581E0D80708F05AC0C83EB2
:101B8000D10510F7CE01DF91CF911F910895C03696
:101B900082E5D80718F5C03482E5D80708F068C098
:101BA000C03282E5D80708F05CC0C11582E5D807CD
:101BB00008F493C02C2F2695269580E2289F90014B
:101BC00011248C2F8370C1E0D0E002C0CC0FDD1F48
:101BD0008A95E2F7C22BD32BDD68D4CFC03A82E5D9
:101BE000D80760F4C03882E5D80708F456C0CF7132
:101BF000D0E0DC2FCC27C46FD06AC4CFC03C82E5D4
:101C0000D80708F45FC0C03E82E5D80708F09CCF33
:101C1000DC2FCC27CC27DF71C06FD06AB3CFC55A79
:101C2000D0E0C757DE4FC881D0E0D064ABCFD065DD
:101C3000A9CF8D2F2BD1182FCE01992785D0C12F59
:101C4000D0E0DC2FCC27CC27DF71C82BD92B9ACF43
:101C5000CE01992779D0CC27DF70C82BD92BD06A39
:101C600091CFCF71D0E0DC2FCC27C16FD06A8ACF63
:101C70002C2F26952695277080E2289F900111240D
:101C80008C2F8370C1E0D0E002C0CC0FDD1F8A959D
:101C9000E2F7C22BD32BDC6875CF2C2F2695269527
:101CA000277080E2289F900111248C2F8370C1E05F
:101CB000D0E002C0CC0FDD1F8A95E2F7C22BD32BF8
:101CC000DA6860CF8C2F8F71E1D0C82FD0E0DC2F85
:101CD000CC27CC27DF71D06255CF8C2F8F71D6D017
:101CE00055E0D695C7955A95E1F7CF70D0E0DC2F37
:101CF000CC27282F30E084FF06C044E0220F331F9A
:101D00004A95E1F73327C22BD32BD0693BCF8D2FD8
:101D10008F71BCD0182FCE01992716D0C12FD0E0DB
:101D2000DC2FCC27CC27DF71C82BD92BD4CF462F63
:101D3000783028F4663018F4672F0C94370390E05D
:101D400080E00895F4DFDCCE82389105B9F1B0F47B
:101D50008133910509F47DC048F48932910509F475
:101D60006DC08A32910509F47BC0089585339105D1
:101D700009F45FC08933910509F10895833E910507
:101D8000D9F138F4803E910529F1823E910579F12F
:101D90000895863E9105D9F1873E910509F43EC02C
:101DA000843E910541F52091530221FF24C080918A
:101DB000520284FD19C087EE90E0089520915202EE
:101DC000237009F05AC02091530223FF14C089E206
:101DD00090E008952091520220FD38C030915302C6
:101DE00030FF09C024FF43C090E080E008952091B7
:101DF000520222FDF7CF08952091520222FD3AC0EF
:101E00003091530230FD39C024FFF5CFEDCF209142
:101E1000520223FFF0CF24FDE7CFCDCF2091520215
:101E200023FD2EC03091530231FFEECF84EE90E0BF
:101E300008952091520225FFDECFC9CF2091520292
:101E400025FD21C02091530223FFD5CF89E390E0E7
:101E5000D2CF2091520226FFCECF8AE290E00895A1
:101E60002091520226FFC7CF81E390E0089583EED0
:101E700090E0089582EE90E0089580EE90E008955D
:101E800086EE90E0089585E390E0089590915202E7
:101E900092FF10C041E0282F2471243009F040E067
:101EA00031E0282F2871283009F030E0431711F075
:101EB0002CE0822793FF10C041E0282F24712431A9
:101EC00009F040E031E0282F2871283109F030E096
:101ED000431711F02CE082273091530230FF10C0DD
:101EE00051E0282F2171213009F050E041E0282FE6
:101EF0002871283009F040E0541711F029E08227BA
:101F000031FF10C041E0282F2171213109F040E05C
:101F100031E0282F2871283109F030E0431711F003
:101F200029E0822794FF02C083FD877E089580E028
:101F30000895CF939C01205E3245C1E020323105E7
:101F400038F4FB01C581C11103C08F710E94E80301
:101F50008C2FCF9108959C01FB018581882391F0FE
:101F60002B35FCE73F0761F02C359CE7390729F05A
:101F70002A353C4741F4A8DC01C09EDC80E008958E
:101F8000A5DCFCCF81E008959C01FB0185818823BD
:101F900099F02130FCE73F0761F023309CE73907D7
:101FA00039F021153C4749F40E94070480E0089568
:101FB000BADC0E940B04FACF81E00895089590E006
:101FC00080E00E94341B21E0833E9E4F09F020E018
:101FD000822F089563EE7EEF90E080E00C94531B17
:101FE0006FEF7FEF90E080E00C94531BCF93DF9373
:101FF000EC0182E090E00E942C1B8883DF91CF915E
:102000000895FC01608182E090E00C94391B83E02C
:1020100090E00E942C1B90E00895682F83E090E0F0
:102020000C94391BCF93DF93EC0184E090E00E9485
:10203000341B99838883DF91CF910895FC016081DF
:10204000718184E090E00C94531BAB01BC018FE0E4
:1020500090E00C944B1BAB01BC0183E190E00C942D
:102060004B1B682F8EE090E00C94391B0895FECF37
:1020700008950895FECF0895E82FF0E0E45AFD4F4B
:1020800080810895089580EA8A95F1F7089500C047
:102090000895F9CF0895F894E82FE295EF70F0E0F5
:1020A00031A1282F2F7081E090E001C0880F2A9580
:1020B000EAF7982F9095932391A392A1892B82A35D
:1020C00078940895CF93DF93C2E9D1E089918F3F4F
:1020D00009F0E1DF81E0CA39D807C1F7CCE8D1E0E7
:1020E00089918F3F09F0D7DF81E0C239D807C1F766
:1020F000DF91CF910895B0E0A0E0E1E8F0E10C9429
:10210000DE1AEC01D62E062F10E0C8018E569E4F27
:102110007C01FC0180818F3F09F442C0F894E82FD4
:10212000E295EF70F0E091A18F7021E030E001C006
:10213000220F8A95EAF7892F822B81A382A120950D
:10214000282322A37894A3DFECE8F1E042E951E0F0
:1021500031E0C12C21912F3F41F1A22FA295AF7008
:10216000B0E090968C9190E02F7002C09595879585
:102170002A95E2F780FD19C0832FC82A330F4E1726
:102180005F0741F7F70180818F3F09F084DF61E04D
:10219000C11001C060E08D2D7CDFC00FD11FC8824F
:1021A000CDB7DEB7E8E00C94FA1A80E0E6CF8ADF1C
:1021B00088E0ECE5F2E0DF01982F1D929A95E9F7AF
:1021C000E4E5F2E0DF011D928A95E9F738D04FCFC0
:1021D000A8E0B0E0EEEEF0E10C94E11A8E010F5FA2
:1021E0001F4F88E0F80111928A95E9F7F12C6F2DC5
:1021F000C80181DFF394F8E0FF12F9CF48E050E026
:10220000B80184E592E00E941F1B41E0009709F4A9
:1022100040E0892B41F088E0F801A4E5B2E00190AC
:102220000D928A95E1F76CE572E084E592E008D0C2
:10223000182F20DF812F2896E5E00C94FD1A0895D1
:10224000EF92FF920F931F93CF93DF937C018B014B
:10225000C42F442371F081E08093190239D6909302
:1022600018028093170280E0CDB7DEB7E6E00C9449
:10227000FC1AD0911902DD23B1F3809117029091DD
:102280001802BDD5059778F348E050E0B701C801C2
:102290000E941F1B892B41F088E0F701D8010190B3
:1022A0000D928A95E1F7CD2F109219028C2FDCCF79
:1022B000AFD588D68CDB95D6AEDBA3D6AED6D5D639
:1022C000DFD693DBFBCF90939B0180939A01089517
:1022D000CF93DF93EB0186319C47F1F437DA9D8190
:1022E000992389F08A7A91E009F490E090931A0298
:1022F000811107C089E2C3D49DDA80E0DF91CF91DC
:10230000089585E3F8CF80911A02811103C089E214
:10231000BCD4F2CF85E3FCCF81E0F0CFCF93DF9345
:10232000EC01FB018581882309F4CBC09E01305765
:102330002332310508F0ABC082E592E0FEDAFE01FF
:10234000E150F047E232F10520F4EB58F44E0C94E2
:10235000CE1A8091520281608093520292C0809185
:1023600053028860809353028CC080915202826035
:10237000F3CF809152028460EFCF80915202886047
:10238000EBCF809153028160EDCF80915302826048
:10239000E9CF809152028061DFCF8091520280624A
:1023A000DBCF809152028064D7CF0E945307809187
:1023B00052028068D1CF809152028C60CDCF809143
:1023C00053028360CFCF809152028E7FC5CF809120
:1023D0005302877FC7CF809152028D7FBDCF8091FE
:1023E00052028B7FB9CF80915202877FB5CF809107
:1023F00053028E7FB7CF809153028D7FB3CF8091F0
:1024000052028F7EA9CF809152028F7DA5CF8091FD
:1024100052028F7BA1CF0E945307809152028F7787
:102420009BCF80915202837F97CF809153028C7F04
:1024300099CF8091520282FB992790F921E092274F
:1024400090FB82F990FB83F987CF80915302982FFC
:10245000909591708E7F892B90FB81F983CF90911D
:102460005202892F8F7B96FF806476CF0E9453079C
:1024700090915202892F97FB87F980586DCF81E0A8
:1024800060DA82E592E05BDA0E94530780E0DF9138
:10249000CF91089580E0F4CF90915202892F8F7EE2
:1024A00094FF806159CF90915202892F8E7F90FFC7
:1024B000816052CF90915302892F877F93FF88606C
:1024C00051CF81E0E4CF282F35EB2303C001112445
:1024D00097FF04C080589109892F089580589F4F15
:1024E000FBCF8091210280FF0DC06091070170E059
:1024F000660F771F6038710570F56115710569F118
:10250000862F089581FF07C06091070184E0689FCE
:10251000B0011124EFCF6091070182FD0AC08091C4
:1025200020028823A9F020910601609107018217FB
:1025300010F088E0ECCF869FC001112433E0880FB3
:10254000991F3A95E1F7622F70E00E94BB1AD2CF33
:1025500068E070E0D5CF8FE7089581E0089580911D
:10256000210280FF0CC06091030170E075956795B2
:10257000759567956115710541F1862F089581FF65
:1025800006C06091030170E075956795F3CF609187
:10259000030182FD0BC090911F02992399F0609175
:1025A000020180910301961738F0682F70E06038BF
:1025B000710500F38FE70895899FC001112470E031
:1025C000DAD7F5CF61E070E0D8CF81E008958D3C97
:1025D00029F487DF81958093250208958E3C11F4BC
:1025E00080DFF9CF8F3C29F47CDF81958093240232
:1025F0000895803D11F475DFF9CF893D21F4AFDFF7
:102600008093260208958A3D19F4A9DF8195F8CFB9
:102610008B3D29F4A4DF81958093270208958C3D9A
:1026200011F49DDFF9CF9FE2980F983070F4815D2F
:10263000990B21E030E001C0220F8A95EAF78091E2
:102640002302822B8093230208958D3D31F48091E3
:10265000210281608093210208958E3D21F48091B2
:1026600021028260F7CF8F3DB9F78091210284600B
:10267000F1CF409124028D3C59F48091250287FFCF
:102680000DC01092250241110BC01092200208C00B
:102690008E3C81F48091250218169CF3442381F02E
:1026A0008091260290912702892B09F05AC010923E
:1026B0001F0208958F3C49F447FFF0CF1092240287
:1026C000809125028111ECCFE0CF803D19F41416E2
:1026D000ACF3E4CF90912602893D29F41916F4F663
:1026E00010922602DBCF8A3D19F497FFD7CFF8CF9F
:1026F000909127028B3D29F497FFD0CF10922702AB
:10270000CDCF8C3D19F41916CCF3C8CF9FE2980FAA
:10271000983090F4815D990B21E030E0B90102C05E
:10272000660F771F8A95E2F7CB018095909123027F
:10273000892380932302B2CF8D3D31F48091210211
:102740008E7F80932102AACF8E3D21F480912102B9
:102750008D7FF7CF8F3D09F0A1CF809121028B7F34
:10276000F0CF0895B5D39C01909124028091250269
:10277000982B21F030931E0220931D029091260287
:1027800080912702982B21F030931C0220931B028A
:1027900082E292E0C8C186E0E2E2F2E0DF011D924F
:1027A0008A95E9F71092200210921F0210922102DE
:1027B0000895FC01828181110EC0838181110BC0BB
:1027C0008481811108C091E08581811101C090E070
:1027D000892F8170089581E0FCCFA6E0B0E0E2EFA0
:1027E000F3E1F1C686E0E2E2F2E0DE01119601904B
:1027F0000D928A95E1F71092240210922502109210
:102800002602109227028B819C81892B81F0809176
:102810001D0290911E02F3D2AC01909120029923E7
:10282000A1F1809108018417150608F43BC08D8141
:102830009E81892B89F080911B0290911C02DFD22E
:10284000AC0190911F02992309F462C080910401A8
:102850008417150608F46AC0BE016F5F7F4F82E2DD
:1028600092E024D2811104C082E292E0A2DF8111C1
:1028700079DF86E0FE013196A2E2B2E001900D928E
:102880008A95E1F72696E3E0BAC6209109018AE02D
:10289000289F900111242417350748F69F5F9093D5
:1028A000200202C09F3FD1F71B81112351F019DE96
:1028B0009FEF11160CF491E0899F802D11248093D5
:1028C00024021C81112351F00CDE9FEF11160CF431
:1028D00091E0899F802D112480932502809124020C
:1028E000882309F4A4CF10912502112309F49FCF66
:1028F000EADD882349F080932402812FE4DD8823D8
:1029000029F08093250293CF81E0F5CF81E0F9CFC4
:10291000209105018AE0289F900111242417350792
:1029200008F09ACF9F5F90931F0202C09F3FD1F79C
:102930001D81112351F013DE9FEF11160CF491E06D
:10294000899F802D1124809326021E81112351F02E
:1029500006DE9FEF11160CF491E0899F802D112463
:102960008093270280912602882309F475CF109165
:102970002702112309F470CFA6DD882349F0809344
:102980002602812FA0DD882329F08093270264CFBF
:1029900081E0F5CF81E0F9CF0F931F93CF93DF93C1
:1029A000C42FD22FFC0185818823C1F040932A02D5
:1029B0008FD2909329028093280280E28C0F883076
:1029C00040F4C77081E001C0880FCA95EAF70E9401
:1029D0003F05DF91CF911F910F91089510912A0229
:1029E000141331C0809128029091290208D2883CAA
:1029F000910548F5C0E2CD0F1D17B9F080E2810FB7
:102A0000883040F4177081E001C0880F1A95EAF70A
:102A10000E944405C83048F481E09D2F977001C0A2
:102A2000880F9A95EAF70E943F05802F0E9438058B
:102A3000C83078F6D77081E001C0880FDA95EAF7E0
:102A40000E944405C6CF80E28C0F883010F6C77014
:102A500081E001C0880FCA95EAF7F2CF0F93DB013E
:102A600088519C478730910590F5FC01E956F44E5A
:102A700095C506E221EE41EE6AE17CE7CD018CDFEF
:102A800080E00F91089507E225EE45EE6BE17CE7CB
:102A9000F5CF06E221EE40EE68E17CE7EFCF07E2FA
:102AA00025EE44EE69E17CE7E9CF06E221EE42EE55
:102AB0006CE17CE7E3CF07E225EE46EE6DE17CE7D3
:102AC000DDCF08E221E045EE6EE17CE7D7CF159639
:102AD0008C91882319F010922A02D3CF81E0D1CFB4
:102AE0009093300280932F02089508950895E09105
:102AF0002F02F0913002309739F00190F081E02DF3
:102B0000309711F00995089580E00895E0912F0223
:102B1000F0913002309731F00280F381E02D309750
:102B200009F009950895E0912F02F0913002309755
:102B300059F026813781232B39F022E0DC012C93D8
:102B40000680F781E02D09950895A3E0B0E0EAEA58
:102B5000F5E13AC520912D0230912E022817390750
:102B6000B1F090932E0280932D02E0912F02F0910C
:102B70003002309761F00084F185E02D309739F014
:102B800023E029839B838A83CE01019609952396AE
:102B9000E2E036C5A3E0B0E0EFECF5E115C5209129
:102BA0002B0230912C0228173907B1F090932C0298
:102BB00080932B02E0912F02F0913002309761F068
:102BC0000084F185E02D309739F024E029839B8340
:102BD0008A83CE01019609952396E2E011C54091C2
:102BE0000001509101019A012E5F3F4F485F5F4FF6
:102BF00080E02417350709F40895F90191919F01A8
:102C00009923B9F38F5FF5CF882371F020910001EC
:102C100030910101F9013296285F3F4F9191981749
:102C200029F0E217F307D1F780E0089581E00895D5
:102C30009C01FC0132969FEF80E04191461751F0D4
:102C40009F3F19F4411101C0982F8F5F8630A9F77B
:102C50009F3F09F40895290F311D97FD3A95F90119
:102C600062830895FC01329608962191261303C0D1
:102C7000DF0111971C92E817F907B9F70895682F3B
:102C80008091000190910101D3CF682F80910001C4
:102C900090910101E7CFE0910001F091010132969E
:102CA00086E0DF011D928A95E9F70895DC01FB01BA
:102CB00011969C9111978181981322C012968C9144
:102CC0001297882319F0928189131AC013968C9158
:102CD0001397882319F09381891312C015968C914C
:102CE0001597882319F0958189130AC014969C9131
:102CF000992321F081E02481291303C080E001C0E1
:102D000081E0817008950895FECF089591E08111CA
:102D100001C090E090930C0160910A0170910B0149
:102D200080910C0190910D01EFCF80910C010895DD
:102D300080930B0160910A0170910B0180910C014D
:102D400090910D01E1CF80910B01089580930A01CC
:102D500060910A0170910B0180910C0190910D011D
:102D6000D3CF80910A01089508950895FECF089564
:102D700008950895F9CF08950F931F93CF93DF938C
:102D8000F7DF26DAF6DF01E312E0C0E0D0E08C2FB7
:102D900073D9F80181938F0191E0811101C090E016
:102DA000D92BCF5FC83099F78D2FDF91CF911F912D
:102DB0000F910895E82FF0E0EF5CFD4F208130E0A7
:102DC00081E090E002C0880F991F6A95E2F72823FE
:102DD000392381E0232B09F480E0089541110EC0CE
:102DE000E82FF0E0EF5CFD4F21E030E001C0220F62
:102DF0006A95EAF720958081282320830895CF9350
:102E0000DF93EC0165D08C1B9D0BDF91CF91089572
:102E100008951F921FB61F9211248F939F93AF9313
:102E2000BF9380913902811113C080916402909107
:102E30006502A0916602B09167024196A11DB11D85
:102E40008093640290936502A0936602B093670238
:102E5000BF91AF919F918F911F901FBE1F901895AA
:102E600080913C02882331F10E940F0410923902B4
:102E700088E190E020E40FB6F894A8958093600074
:102E80000FBE2093600083B7817F846083BF83B7C8
:102E9000816083BF7894889583B78E7F83BF0FB698
:102EA000F894A895809160008861809360001092EA
:102EB00060000FBE08950E9453070C94130482E033
:102EC00084BD93E095BD9AEF97BD80936E00089501
:102ED0002FB7F8948091640290916502A0916602E8
:102EE000B09167022FBF08952FB7F89460916402E4
:102EF0007091650280916602909167022FBF0895DC
:102F000078941F921FB61F9211248F939F93AF93B3
:102F1000BF938091640290916502A0916602B09186
:102F200067020196A11DB11D809364029093650212
:102F3000A0936602B0936702BF91AF919F918F916A
:102F40001F901FBE1F90189588E198E00FB6F89467
:102F5000A895809360000FBE90936000A895F894A8
:102F6000D8E0CEEF28E3299320E0299314BEFFCFC9
:102F700088E198E00FB6F894A895809360000FBEA2
:102F800090936000FFCF80918F02882361F01092B0
:102F90008F029EDF90933B0280933A0210923C0294
:102FA00080913C02089580913C028111F9CF80917B
:102FB0003A0290913B0223DF069790F381E08093E1
:102FC0003C02EECF85DF90933B0280933A0280E88B
:102FD00090E00FB6F89480936100909361000FBE6B
:102FE0000895AED2539A80E0815019F453987894A2
:102FF0000895A895EFE9FFE03197F1F700C00000D0
:10300000F3CFAFD06DDD2FEF80E792E0215080400D
:103010009040E1F700C000000895CF93B4DFCCE00A
:1030200081111EC0CF9108951BDFA6DE8823C1F059
:10303000F8949AB15B9A892F8C608AB98BB18C27EE
:103040008BB92FE738E381E0215030408040E1F731
:1030500000C000008BB18C278BB99AB95B9878942B
:1030600092DF8111E1CF27DFDDCF7ED18091950204
:10307000882329F08091730284FD0C94140D089527
:103080000895FF920F931F93CF93DF93D82F8B0157
:10309000F42EC5E0D13031F0D33061F0CDB7DEB7DA
:1030A000E5E0ABC28091730284FF0CC06F2DC801B4
:1030B00055D1F4CF8091AC0284FF04C06F2DC801BC
:1030C00050D1ECCF51D18FE19EE40197F1F700C0D0
:1030D0000000C150F9F6E2CFB0E0A0E0E1E7F8E18E
:1030E0006DC2E82E8B01EA016A0183E0D694C79491
:1030F0008A95E1F7F12CFC141D0458F0C77029F0F3
:103100004C2F50E0B8018E2DBCDFCDB7DEB7E8E024
:1031100071C248E050E0B8018E2DB3DF085F1F4F49
:10312000F394E9CF43E050E0BC0183E0D5CF46E023
:1031300050E0BC0183E0D0CFCF93DF93EC01F5DD0D
:1031400048E050E0BE0181E0C7DF88E0FE01A2E474
:10315000B2E001900D928A95E1F7DF91CF91089549
:1031600008958EE091E00895FC01808180768032A0
:1031700041F481818330C1F130F48130F1F082304B
:1031800041F180E008958A30A9F18B30B1F18930A6
:10319000C1F7828193818115924069F48481958180
:1031A000892B49F481E08093410286819781909335
:1031B000400280933F028FEF089584819581892B8F
:1031C00001F782E492E0909391028093900288E06C
:1031D0000895C7DD80933E028EE392E090939102C2
:1031E0008093900281E00895A0DD80933D028DE3FD
:1031F00092E0F4CF8381AADDC4CF84819581892BAD
:1032000009F0BFCF828182DDBCCFCF9320913F02F6
:1032100030914002232B71F0C0914102C13051F432
:10322000FC01808185DD1092400210923F028C2FBC
:10323000CF910895CFEFFBCF0895FC019381933098
:1032400059F130F49130C1F09230F1F080E00895FE
:10325000913209F440C09232C9F784819581009778
:1032600009F44BC0019791F789E592E090939102A0
:10327000809390028DE7089583E292E0909391020B
:103280008093900282E1089588EE91E090939102FC
:10329000809390028BE3089582818130A1F088238E
:1032A00051F0823099F685E392E0909391028093F9
:1032B00090028CE0089585E592E0909391028093CE
:1032C000900284E0089583E492E0909391028093C9
:1032D000900280E1089584819581009731F00197F3
:1032E00009F0B4CF83E192E002C08AEF91E09093BD
:1032F00091028093900289E0089586ED92E0909388
:1033000091028093900284E408951F93CF93DF93FA
:10331000E82F792F162FEA01888184FF1CC02981AC
:1033200088E828272983CE010296DC012E2F372F2B
:10333000512F5E0FF90121912D939F01452F4E1BB7
:103340001416C4F3612F0E94C0011C5F1883DF9123
:10335000CF911F9108958AE58883E5CF43E752E036
:10336000D4CF4CEA52E0D1CFCF93DF936091920259
:10337000635067FD11C080918E02CCE0D0E0C81B85
:10338000D109CA56DD4F80918D02803108F053C0BB
:10339000CE0152DF109292028091190184FF3EC04B
:1033A000809118018F3FD1F1C82F893008F0C8E013
:1033B000982F9C1B909318019091680228E89227FF
:1033C000909368028823E9F0809190029091910295
:1033D00020918C0226FFABC0FC012C2FA9E6B2E0A5
:1033E00034913D9331962150D9F79C012F5F3F4F87
:1033F0008FEF8C0F820F932F911D909391028093EA
:1034000090026C2F89E692E00E94C001CC5FCC3024
:1034100019F08FEF80931801C093190184E199B1DD
:103420009C7031F48150D9F71092930210928B0264
:10343000DF91CF9108958D3209F067C0683009F0AF
:10344000A9CF83EC809368028AE5809319011092DA
:103450008C028881807669F0CE0186DE8F3FC1F4D0
:10346000988197FD8E8190E890938C02809318014B
:1034700091CF2A81109271029981911111C01092FD
:10348000720221E732E082E03093910220939002B1
:103490009F819111EBCF9E81981740F7892FE6CF3E
:1034A000953029F42093930221E732E0EDCF963056
:1034B00091F49B81913019F4CE01BFDE08C09230A7
:1034C000D9F39330C9F39132B9F39232A9F390E46E
:1034D00090938C02C3CF983089F0993019F42093DF
:1034E0009502E2CF9A3071F09B30F1F69BE4909315
:1034F00074029093AD0290938002D6CF25E932E01A
:1035000081E0C2CF21E732E0FBCF80918C0287FFC0
:1035100041CFCE017ADE8F3F21F48EE180931901F5
:1035200039CF882309F436CF1092180133CFDC014C
:103530002C2FE9E6F2E03D9131932150E1F755CF90
:10354000CF93DF93E9E6F0E0808188608083E99A99
:10355000C3E7D2E08BE48983ACEAB2E011968C93A6
:103560001197EFE7F2E081838AE588838C9380836B
:10357000DF91CF91089597FB072E16F4009406D0A3
:1035800077FD08D048D007FC05D03EF49095819592
:103590009F4F0895709561957F4F0895EE0FFF1F1F
:1035A0000590F491E02D09942F923F924F925F92F3
:1035B0006F927F928F929F92AF92BF92CF92DF9243
:1035C000EF92FF920F931F93CF93DF93CDB7DEB7A8
:1035D000CA1BDB0B0FB6F894DEBF0FBECDBF09943C
:1035E0002A88398848885F846E847D848C849B8493
:1035F000AA84B984C884DF80EE80FD800C811B81A1
:10360000AA81B981CE0FD11D0FB6F894DEBF0FBECF
:10361000CDBFED010895AA1BBB1B51E107C0AA1F36
:10362000BB1FA617B70710F0A61BB70B881F991F63
:103630005A95A9F780959095BC01CD010895FB019D
:10364000DC0104C08D910190801921F4415050405B
:10365000C8F7881B990B0895F999FECF92BD81BDDB
:10366000F89A992780B50895A8E1B0E042E050E0CB
:1036700020C0262FF999FECF92BD81BDF89A0197FF
:1036800000B4021639F01FBA20BD0FB6F894FA9AAA
:10369000F99A0FBE08950396272FECDFEADF252F56
:1036A000E9DF242FE7CF0196272FE4DFE2CFDC010B
:1036B000CB01FC01F999FECF06C0F2BDE1BDF89A3D
:1036C000319600B40D9241505040B8F70895F894E7
:1036D000FFCF87058705BD05BD0516063206AF0578
:1036E000AF0536069F06AB06AB06E3115312EB118E
:1036F000B511B911EF11BD11F311FF11C9114C1220
:10370000CD110312D11107122F12D5110B1236123F
:10371000DB1111121912C111F711C511FB11DF11C3
:10372000151225123F124A12AF11E7115A1249150C
:0C3730004F153915431555155B15611533
:10373C000202280850011E0A140100000100A31601
:10374C009C18B01897189218FF5AE200E900EA008A
:10375C00B500B600B700CD008301CC008A01920100
:10376C0094012102230224022502260227022A02A6
:10377C00B300B4006F0070009F01CB019F02A00248
:10378C00818283E200E900EA00B500B600B700CD03
:10379C00008301CC008A01920194012102230224AE
:1037AC00022502260227022A02B300B4006F007021
:1037BC00009F01CB019F02A00281828334333230FF
:0A37CC009796909194956561353150
:00000001FF
